{
  "contractName": "Account2",
  "abi": [
    {
      "inputs": [
        {
          "internalType": "address",
          "name": "_owner",
          "type": "address"
        }
      ],
      "stateMutability": "payable",
      "type": "constructor"
    },
    {
      "inputs": [],
      "name": "Unauthorized",
      "type": "error"
    },
    {
      "anonymous": false,
      "inputs": [
        {
          "indexed": true,
          "internalType": "address",
          "name": "account",
          "type": "address"
        },
        {
          "indexed": true,
          "internalType": "address",
          "name": "operator",
          "type": "address"
        },
        {
          "indexed": false,
          "internalType": "bool",
          "name": "approved",
          "type": "bool"
        }
      ],
      "name": "ApprovalForAll",
      "type": "event"
    },
    {
      "anonymous": false,
      "inputs": [
        {
          "indexed": true,
          "internalType": "address",
          "name": "operator",
          "type": "address"
        },
        {
          "indexed": true,
          "internalType": "address",
          "name": "from",
          "type": "address"
        },
        {
          "indexed": true,
          "internalType": "address",
          "name": "to",
          "type": "address"
        },
        {
          "indexed": false,
          "internalType": "uint256[]",
          "name": "ids",
          "type": "uint256[]"
        },
        {
          "indexed": false,
          "internalType": "uint256[]",
          "name": "values",
          "type": "uint256[]"
        }
      ],
      "name": "TransferBatch",
      "type": "event"
    },
    {
      "anonymous": false,
      "inputs": [
        {
          "indexed": true,
          "internalType": "address",
          "name": "operator",
          "type": "address"
        },
        {
          "indexed": true,
          "internalType": "address",
          "name": "from",
          "type": "address"
        },
        {
          "indexed": true,
          "internalType": "address",
          "name": "to",
          "type": "address"
        },
        {
          "indexed": false,
          "internalType": "uint256",
          "name": "id",
          "type": "uint256"
        },
        {
          "indexed": false,
          "internalType": "uint256",
          "name": "value",
          "type": "uint256"
        }
      ],
      "name": "TransferSingle",
      "type": "event"
    },
    {
      "anonymous": false,
      "inputs": [
        {
          "indexed": false,
          "internalType": "string",
          "name": "value",
          "type": "string"
        },
        {
          "indexed": true,
          "internalType": "uint256",
          "name": "id",
          "type": "uint256"
        }
      ],
      "name": "URI",
      "type": "event"
    },
    {
      "inputs": [],
      "name": "amount",
      "outputs": [
        {
          "internalType": "uint256",
          "name": "",
          "type": "uint256"
        }
      ],
      "stateMutability": "view",
      "type": "function"
    },
    {
      "inputs": [
        {
          "internalType": "address",
          "name": "account",
          "type": "address"
        },
        {
          "internalType": "uint256",
          "name": "id",
          "type": "uint256"
        }
      ],
      "name": "balanceOf",
      "outputs": [
        {
          "internalType": "uint256",
          "name": "",
          "type": "uint256"
        }
      ],
      "stateMutability": "view",
      "type": "function"
    },
    {
      "inputs": [
        {
          "internalType": "address[]",
          "name": "accounts",
          "type": "address[]"
        },
        {
          "internalType": "uint256[]",
          "name": "ids",
          "type": "uint256[]"
        }
      ],
      "name": "balanceOfBatch",
      "outputs": [
        {
          "internalType": "uint256[]",
          "name": "",
          "type": "uint256[]"
        }
      ],
      "stateMutability": "view",
      "type": "function"
    },
    {
      "inputs": [
        {
          "internalType": "address",
          "name": "",
          "type": "address"
        }
      ],
      "name": "balances",
      "outputs": [
        {
          "internalType": "uint256",
          "name": "",
          "type": "uint256"
        }
      ],
      "stateMutability": "view",
      "type": "function"
    },
    {
      "inputs": [],
      "name": "fee",
      "outputs": [
        {
          "internalType": "uint256",
          "name": "",
          "type": "uint256"
        }
      ],
      "stateMutability": "view",
      "type": "function"
    },
    {
      "inputs": [],
      "name": "id",
      "outputs": [
        {
          "internalType": "uint256",
          "name": "",
          "type": "uint256"
        }
      ],
      "stateMutability": "view",
      "type": "function"
    },
    {
      "inputs": [],
      "name": "incentivebank",
      "outputs": [
        {
          "internalType": "address",
          "name": "",
          "type": "address"
        }
      ],
      "stateMutability": "view",
      "type": "function"
    },
    {
      "inputs": [
        {
          "internalType": "address",
          "name": "account",
          "type": "address"
        },
        {
          "internalType": "address",
          "name": "operator",
          "type": "address"
        }
      ],
      "name": "isApprovedForAll",
      "outputs": [
        {
          "internalType": "bool",
          "name": "",
          "type": "bool"
        }
      ],
      "stateMutability": "view",
      "type": "function"
    },
    {
      "inputs": [],
      "name": "mintRate",
      "outputs": [
        {
          "internalType": "uint256",
          "name": "",
          "type": "uint256"
        }
      ],
      "stateMutability": "view",
      "type": "function"
    },
    {
      "inputs": [],
      "name": "minted",
      "outputs": [
        {
          "internalType": "uint256",
          "name": "",
          "type": "uint256"
        }
      ],
      "stateMutability": "view",
      "type": "function"
    },
    {
      "inputs": [],
      "name": "ownerAddr",
      "outputs": [
        {
          "internalType": "address",
          "name": "",
          "type": "address"
        }
      ],
      "stateMutability": "view",
      "type": "function"
    },
    {
      "inputs": [],
      "name": "parentFLM",
      "outputs": [
        {
          "internalType": "contract IERC1155",
          "name": "",
          "type": "address"
        }
      ],
      "stateMutability": "view",
      "type": "function"
    },
    {
      "inputs": [
        {
          "internalType": "address",
          "name": "from",
          "type": "address"
        },
        {
          "internalType": "address",
          "name": "to",
          "type": "address"
        },
        {
          "internalType": "uint256[]",
          "name": "ids",
          "type": "uint256[]"
        },
        {
          "internalType": "uint256[]",
          "name": "amounts",
          "type": "uint256[]"
        },
        {
          "internalType": "bytes",
          "name": "data",
          "type": "bytes"
        }
      ],
      "name": "safeBatchTransferFrom",
      "outputs": [],
      "stateMutability": "nonpayable",
      "type": "function"
    },
    {
      "inputs": [
        {
          "internalType": "address",
          "name": "from",
          "type": "address"
        },
        {
          "internalType": "address",
          "name": "to",
          "type": "address"
        },
        {
          "internalType": "uint256",
          "name": "id",
          "type": "uint256"
        },
        {
          "internalType": "uint256",
          "name": "amount",
          "type": "uint256"
        },
        {
          "internalType": "bytes",
          "name": "data",
          "type": "bytes"
        }
      ],
      "name": "safeTransferFrom",
      "outputs": [],
      "stateMutability": "nonpayable",
      "type": "function"
    },
    {
      "inputs": [
        {
          "internalType": "address",
          "name": "operator",
          "type": "address"
        },
        {
          "internalType": "bool",
          "name": "approved",
          "type": "bool"
        }
      ],
      "name": "setApprovalForAll",
      "outputs": [],
      "stateMutability": "nonpayable",
      "type": "function"
    },
    {
      "inputs": [],
      "name": "setownerAddr",
      "outputs": [
        {
          "internalType": "address",
          "name": "",
          "type": "address"
        }
      ],
      "stateMutability": "view",
      "type": "function"
    },
    {
      "inputs": [
        {
          "internalType": "address",
          "name": "",
          "type": "address"
        }
      ],
      "name": "stakes",
      "outputs": [
        {
          "internalType": "uint256",
          "name": "modelId",
          "type": "uint256"
        },
        {
          "internalType": "uint256",
          "name": "amount",
          "type": "uint256"
        },
        {
          "internalType": "uint256",
          "name": "timestamp",
          "type": "uint256"
        }
      ],
      "stateMutability": "view",
      "type": "function"
    },
    {
      "inputs": [
        {
          "internalType": "address",
          "name": "",
          "type": "address"
        }
      ],
      "name": "stakingTime",
      "outputs": [
        {
          "internalType": "uint256",
          "name": "",
          "type": "uint256"
        }
      ],
      "stateMutability": "view",
      "type": "function"
    },
    {
      "inputs": [],
      "name": "supplies",
      "outputs": [
        {
          "internalType": "uint256",
          "name": "",
          "type": "uint256"
        }
      ],
      "stateMutability": "view",
      "type": "function"
    },
    {
      "inputs": [
        {
          "internalType": "bytes4",
          "name": "interfaceId",
          "type": "bytes4"
        }
      ],
      "name": "supportsInterface",
      "outputs": [
        {
          "internalType": "bool",
          "name": "",
          "type": "bool"
        }
      ],
      "stateMutability": "view",
      "type": "function"
    },
    {
      "inputs": [],
      "name": "taken",
      "outputs": [
        {
          "internalType": "uint256",
          "name": "",
          "type": "uint256"
        }
      ],
      "stateMutability": "view",
      "type": "function"
    },
    {
      "inputs": [
        {
          "internalType": "uint256",
          "name": "",
          "type": "uint256"
        }
      ],
      "name": "uri",
      "outputs": [
        {
          "internalType": "string",
          "name": "",
          "type": "string"
        }
      ],
      "stateMutability": "view",
      "type": "function"
    },
    {
      "inputs": [
        {
          "internalType": "uint256",
          "name": "_modelId",
          "type": "uint256"
        },
        {
          "internalType": "uint256",
          "name": "_amount",
          "type": "uint256"
        }
      ],
      "name": "stake",
      "outputs": [],
      "stateMutability": "nonpayable",
      "type": "function"
    },
    {
      "inputs": [],
      "name": "unstake",
      "outputs": [],
      "stateMutability": "nonpayable",
      "type": "function"
    },
    {
      "inputs": [
        {
          "internalType": "address",
          "name": "operatorp",
          "type": "address"
        },
        {
          "internalType": "address",
          "name": "fromp",
          "type": "address"
        },
        {
          "internalType": "uint256",
          "name": "idp",
          "type": "uint256"
        },
        {
          "internalType": "uint256",
          "name": "valuep",
          "type": "uint256"
        },
        {
          "internalType": "bytes",
          "name": "datap",
          "type": "bytes"
        }
      ],
      "name": "onERC1155Received",
      "outputs": [
        {
          "internalType": "bytes4",
          "name": "",
          "type": "bytes4"
        }
      ],
      "stateMutability": "nonpayable",
      "type": "function"
    },
    {
      "inputs": [],
      "name": "Deposit",
      "outputs": [],
      "stateMutability": "payable",
      "type": "function"
    },
    {
      "inputs": [
        {
          "internalType": "uint256",
          "name": "_amount",
          "type": "uint256"
        }
      ],
      "name": "WithdrawByOwner",
      "outputs": [],
      "stateMutability": "nonpayable",
      "type": "function"
    },
    {
      "inputs": [],
      "name": "getStakingTime_Maxbalances_Incentivebankbalances_Ownerbalances_MintRate_Supplies_URI",
      "outputs": [
        {
          "internalType": "uint256",
          "name": "",
          "type": "uint256"
        },
        {
          "internalType": "uint256",
          "name": "",
          "type": "uint256"
        },
        {
          "internalType": "uint256",
          "name": "",
          "type": "uint256"
        },
        {
          "internalType": "uint256",
          "name": "",
          "type": "uint256"
        },
        {
          "internalType": "uint256",
          "name": "",
          "type": "uint256"
        },
        {
          "internalType": "uint256",
          "name": "",
          "type": "uint256"
        },
        {
          "internalType": "string",
          "name": "",
          "type": "string"
        }
      ],
      "stateMutability": "view",
      "type": "function"
    },
    {
      "inputs": [],
      "name": "getTimeLeft_expired4",
      "outputs": [
        {
          "internalType": "uint256",
          "name": "",
          "type": "uint256"
        }
      ],
      "stateMutability": "view",
      "type": "function"
    },
    {
      "inputs": [
        {
          "internalType": "uint256",
          "name": "rate",
          "type": "uint256"
        },
        {
          "internalType": "uint256",
          "name": "max",
          "type": "uint256"
        },
        {
          "internalType": "string",
          "name": "newuri",
          "type": "string"
        }
      ],
      "name": "settingMintRate_Supplies_URI",
      "outputs": [],
      "stateMutability": "nonpayable",
      "type": "function"
    }
  ],
  "bytecode": "0x60806040526064600c556001600e556028601255600460135560405162004dff38038062004dff83398181016040528101906200003d91906200024d565b604051806020016040528060008152506200005e816200016a60201b60201c565b5033600360006101000a81548173ffffffffffffffffffffffffffffffffffffffff021916908373ffffffffffffffffffffffffffffffffffffffff16021790555080600460006101000a81548173ffffffffffffffffffffffffffffffffffffffff021916908373ffffffffffffffffffffffffffffffffffffffff16021790555080600560006101000a81548173ffffffffffffffffffffffffffffffffffffffff021916908373ffffffffffffffffffffffffffffffffffffffff16021790555030600660006101000a81548173ffffffffffffffffffffffffffffffffffffffff021916908373ffffffffffffffffffffffffffffffffffffffff160217905550506200032c565b80600290805190602001906200018292919062000186565b5050565b8280546200019490620002ad565b90600052602060002090601f016020900481019282620001b8576000855562000204565b82601f10620001d357805160ff191683800117855562000204565b8280016001018555821562000204579182015b8281111562000203578251825591602001919060010190620001e6565b5b50905062000213919062000217565b5090565b5b808211156200023257600081600090555060010162000218565b5090565b600081519050620002478162000312565b92915050565b6000602082840312156200026057600080fd5b6000620002708482850162000236565b91505092915050565b600062000286826200028d565b9050919050565b600073ffffffffffffffffffffffffffffffffffffffff82169050919050565b60006002820490506001821680620002c657607f821691505b60208210811415620002dd57620002dc620002e3565b5b50919050565b7f4e487b7100000000000000000000000000000000000000000000000000000000600052602260045260246000fd5b6200031d8162000279565b81146200032957600080fd5b50565b614ac3806200033c6000396000f3fe6080604052600436106101cc5760003560e01c806393568854116100f7578063b6761a6411610095578063ed21248c11610064578063ed21248c146106a9578063f23a6e61146106b3578063f242432a146106f0578063fd6d169b14610719576101cc565b8063b6761a64146105eb578063ca0dcf1614610616578063ddca3f4314610641578063e985e9c51461066c576101cc565b8063a22cb465116100d1578063a22cb46514610541578063a47814ce1461056a578063aa8c217c14610595578063af640d0f146105c0576101cc565b806393568854146104c45780639c675eaa146104ed5780639d78554b14610518576101cc565b806333c934fd1161016f578063583d42fd1161013e578063583d42fd146104085780636a0df4f9146104455780637b0472f0146104705780638efa887414610499576101cc565b806333c934fd146103445780633b6aa78c1461036f5780634e1273f4146103a05780634f02c420146103dd576101cc565b806316934fc4116101ab57806316934fc41461028857806327e235e3146102c75780632def6620146103045780632eb2c2d61461031b576101cc565b8062fdd58e146101d157806301ffc9a71461020e5780630e89341c1461024b575b600080fd5b3480156101dd57600080fd5b506101f860048036038101906101f39190613458565b610744565b6040516102059190613eb5565b60405180910390f35b34801561021a57600080fd5b5061023560048036038101906102309190613500565b61080d565b6040516102429190613be2565b60405180910390f35b34801561025757600080fd5b50610272600480360381019061026d9190613552565b6108ef565b60405161027f9190613c33565b60405180910390f35b34801561029457600080fd5b506102af60048036038101906102aa91906131d7565b610983565b6040516102be93929190613ef9565b60405180910390f35b3480156102d357600080fd5b506102ee60048036038101906102e991906131d7565b6109ad565b6040516102fb9190613eb5565b60405180910390f35b34801561031057600080fd5b506103196109c5565b005b34801561032757600080fd5b50610342600480360381019061033d919061323c565b610ce1565b005b34801561035057600080fd5b50610359610d82565b6040516103669190613eb5565b60405180910390f35b34801561037b57600080fd5b50610384610ddc565b6040516103979796959493929190613f30565b60405180910390f35b3480156103ac57600080fd5b506103c760048036038101906103c29190613494565b611013565b6040516103d49190613b89565b60405180910390f35b3480156103e957600080fd5b506103f26111c4565b6040516103ff9190613eb5565b60405180910390f35b34801561041457600080fd5b5061042f600480360381019061042a91906131d7565b6111ca565b60405161043c9190613eb5565b60405180910390f35b34801561045157600080fd5b5061045a6111e2565b6040516104679190613a54565b60405180910390f35b34801561047c57600080fd5b506104976004803603810190610492919061357b565b611208565b005b3480156104a557600080fd5b506104ae61131a565b6040516104bb9190613eb5565b60405180910390f35b3480156104d057600080fd5b506104eb60048036038101906104e691906135b7565b611320565b005b3480156104f957600080fd5b506105026113da565b60405161050f9190613a54565b60405180910390f35b34801561052457600080fd5b5061053f600480360381019061053a9190613552565b611400565b005b34801561054d57600080fd5b506105686004803603810190610563919061341c565b6115d2565b005b34801561057657600080fd5b5061057f6115e8565b60405161058c9190613a54565b60405180910390f35b3480156105a157600080fd5b506105aa61160e565b6040516105b79190613eb5565b60405180910390f35b3480156105cc57600080fd5b506105d5611614565b6040516105e29190613eb5565b60405180910390f35b3480156105f757600080fd5b5061060061161a565b60405161060d9190613eb5565b60405180910390f35b34801561062257600080fd5b5061062b611620565b6040516106389190613eb5565b60405180910390f35b34801561064d57600080fd5b50610656611626565b6040516106639190613eb5565b60405180910390f35b34801561067857600080fd5b50610693600480360381019061068e9190613200565b61162c565b6040516106a09190613be2565b60405180910390f35b6106b16116c0565b005b3480156106bf57600080fd5b506106da60048036038101906106d591906132fb565b611993565b6040516106e79190613bfd565b60405180910390f35b3480156106fc57600080fd5b506107176004803603810190610712919061338d565b6119c2565b005b34801561072557600080fd5b5061072e611a63565b60405161073b9190613c18565b60405180910390f35b60008073ffffffffffffffffffffffffffffffffffffffff168373ffffffffffffffffffffffffffffffffffffffff1614156107b5576040517f08c379a00000000000000000000000000000000000000000000000000000000081526004016107ac90613cd5565b60405180910390fd5b60008083815260200190815260200160002060008473ffffffffffffffffffffffffffffffffffffffff1673ffffffffffffffffffffffffffffffffffffffff16815260200190815260200160002054905092915050565b60007fd9b67a26000000000000000000000000000000000000000000000000000000007bffffffffffffffffffffffffffffffffffffffffffffffffffffffff1916827bffffffffffffffffffffffffffffffffffffffffffffffffffffffff191614806108d857507f0e89341c000000000000000000000000000000000000000000000000000000007bffffffffffffffffffffffffffffffffffffffffffffffffffffffff1916827bffffffffffffffffffffffffffffffffffffffffffffffffffffffff1916145b806108e857506108e782611a89565b5b9050919050565b6060600280546108fe9061431a565b80601f016020809104026020016040519081016040528092919081815260200182805461092a9061431a565b80156109775780601f1061094c57610100808354040283529160200191610977565b820191906000526020600020905b81548152906001019060200180831161095a57829003601f168201915b50505050509050919050565b60076020528060005260406000206000915090508060000154908060010154908060020154905083565b60096020528060005260406000206000915090505481565b6000600760003373ffffffffffffffffffffffffffffffffffffffff1673ffffffffffffffffffffffffffffffffffffffff168152602001908152602001600020600101541115610cdf57600660009054906101000a900473ffffffffffffffffffffffffffffffffffffffff1673ffffffffffffffffffffffffffffffffffffffff1663f242432a3033600760003373ffffffffffffffffffffffffffffffffffffffff1673ffffffffffffffffffffffffffffffffffffffff16815260200190815260200160002060000154600760003373ffffffffffffffffffffffffffffffffffffffff1673ffffffffffffffffffffffffffffffffffffffff168152602001908152602001600020600101546040518563ffffffff1660e01b8152600401610af59493929190613b31565b600060405180830381600087803b158015610b0f57600080fd5b505af1158015610b23573d6000803e3d6000fd5b50505050600760003373ffffffffffffffffffffffffffffffffffffffff1673ffffffffffffffffffffffffffffffffffffffff1681526020019081526020016000206002015442610b7591906141e2565b600860003373ffffffffffffffffffffffffffffffffffffffff1673ffffffffffffffffffffffffffffffffffffffff16815260200190815260200160002081905550600760003373ffffffffffffffffffffffffffffffffffffffff1673ffffffffffffffffffffffffffffffffffffffff168152602001908152602001600020600080820160009055600182016000905560028201600090555050603c600860003373ffffffffffffffffffffffffffffffffffffffff1673ffffffffffffffffffffffffffffffffffffffff1681526020019081526020016000205410610cde57610cdd6064600160096000600360009054906101000a900473ffffffffffffffffffffffffffffffffffffffff1673ffffffffffffffffffffffffffffffffffffffff1673ffffffffffffffffffffffffffffffffffffffff16815260200190815260200160002054610ccc9190614188565b610cd69190614157565b6000611af3565b5b5b565b610ce9611db0565b73ffffffffffffffffffffffffffffffffffffffff168573ffffffffffffffffffffffffffffffffffffffff161480610d2f5750610d2e85610d29611db0565b61162c565b5b610d6e576040517f08c379a0000000000000000000000000000000000000000000000000000000008152600401610d6590613cf5565b60405180910390fd5b610d7b8585858585611db8565b5050505050565b6000601154421115610dc9576040517f08c379a0000000000000000000000000000000000000000000000000000000008152600401610dc090613d75565b60405180910390fd5b42601154610dd791906141e2565b905090565b6000806000806000806060600760003373ffffffffffffffffffffffffffffffffffffffff1673ffffffffffffffffffffffffffffffffffffffff1681526020019081526020016000206002015442610e3591906141e2565b60135460096000600460009054906101000a900473ffffffffffffffffffffffffffffffffffffffff1673ffffffffffffffffffffffffffffffffffffffff1673ffffffffffffffffffffffffffffffffffffffff16815260200190815260200160002054610ea49190614157565b60096000600360009054906101000a900473ffffffffffffffffffffffffffffffffffffffff1673ffffffffffffffffffffffffffffffffffffffff1673ffffffffffffffffffffffffffffffffffffffff1681526020019081526020016000205460096000600460009054906101000a900473ffffffffffffffffffffffffffffffffffffffff1673ffffffffffffffffffffffffffffffffffffffff1673ffffffffffffffffffffffffffffffffffffffff16815260200190815260200160002054600a54600c546010808054610f7c9061431a565b80601f0160208091040260200160405190810160405280929190818152602001828054610fa89061431a565b8015610ff55780601f10610fca57610100808354040283529160200191610ff5565b820191906000526020600020905b815481529060010190602001808311610fd857829003601f168201915b50505050509050965096509650965096509650965090919293949596565b60608151835114611059576040517f08c379a000000000000000000000000000000000000000000000000000000000815260040161105090613e15565b60405180910390fd5b6000835167ffffffffffffffff81111561109c577f4e487b7100000000000000000000000000000000000000000000000000000000600052604160045260246000fd5b6040519080825280602002602001820160405280156110ca5781602001602082028036833780820191505090505b50905060005b84518110156111b957611163858281518110611115577f4e487b7100000000000000000000000000000000000000000000000000000000600052603260045260246000fd5b6020026020010151858381518110611156577f4e487b7100000000000000000000000000000000000000000000000000000000600052603260045260246000fd5b6020026020010151610744565b82828151811061119c577f4e487b7100000000000000000000000000000000000000000000000000000000600052603260045260246000fd5b602002602001018181525050806111b29061437d565b90506110d0565b508091505092915050565b600b5481565b60086020528060005260406000206000915090505481565b600360009054906101000a900473ffffffffffffffffffffffffffffffffffffffff1681565b604051806060016040528083815260200182815260200142815250600760003373ffffffffffffffffffffffffffffffffffffffff1673ffffffffffffffffffffffffffffffffffffffff168152602001908152602001600020600082015181600001556020820151816001015560408201518160020155905050600660009054906101000a900473ffffffffffffffffffffffffffffffffffffffff1673ffffffffffffffffffffffffffffffffffffffff1663f242432a333085856040518563ffffffff1660e01b81526004016112e49493929190613b31565b600060405180830381600087803b1580156112fe57600080fd5b505af1158015611312573d6000803e3d6000fd5b505050505050565b600c5481565b600560009054906101000a900473ffffffffffffffffffffffffffffffffffffffff1673ffffffffffffffffffffffffffffffffffffffff163373ffffffffffffffffffffffffffffffffffffffff16146113a7576040517f82b4290000000000000000000000000000000000000000000000000000000000815260040160405180910390fd5b82600a8190555081600c8190555080601090805190602001906113cb929190612e85565b506113d581612126565b505050565b600460009054906101000a900473ffffffffffffffffffffffffffffffffffffffff1681565b600460009054906101000a900473ffffffffffffffffffffffffffffffffffffffff1673ffffffffffffffffffffffffffffffffffffffff163373ffffffffffffffffffffffffffffffffffffffff1614611487576040517f82b4290000000000000000000000000000000000000000000000000000000000815260040160405180910390fd5b600160135461149691906141e2565b6012546114a39190614188565b6011546114b091906141e2565b42116114f1576040517f08c379a00000000000000000000000000000000000000000000000000000000081526004016114e890613c75565b60405180910390fd5b60135460096000600460009054906101000a900473ffffffffffffffffffffffffffffffffffffffff1673ffffffffffffffffffffffffffffffffffffffff1673ffffffffffffffffffffffffffffffffffffffff168152602001908152602001600020546115609190614157565b8111156115a2576040517f08c379a000000000000000000000000000000000000000000000000000000000815260040161159990613d35565b60405180910390fd5b6115ab81612140565b600160135411156115cf57601360008154809291906115c9906142f0565b91905055505b50565b6115e46115dd611db0565b8383612404565b5050565b600560009054906101000a900473ffffffffffffffffffffffffffffffffffffffff1681565b600e5481565b600d5481565b60135481565b600a5481565b600f5481565b6000600160008473ffffffffffffffffffffffffffffffffffffffff1673ffffffffffffffffffffffffffffffffffffffff16815260200190815260200160002060008373ffffffffffffffffffffffffffffffffffffffff1673ffffffffffffffffffffffffffffffffffffffff16815260200190815260200160002060009054906101000a900460ff16905092915050565b600a54341015611705576040517f08c379a00000000000000000000000000000000000000000000000000000000081526004016116fc90613e35565b60405180910390fd5b600b54600c541161174b576040517f08c379a000000000000000000000000000000000000000000000000000000000815260040161174290613dd5565b60405180910390fd5b6001600b541015611799576000600560006101000a81548173ffffffffffffffffffffffffffffffffffffffff021916908373ffffffffffffffffffffffffffffffffffffffff1602179055505b4260046012546117a99190614188565b6117b39190614101565b60118190555060646005346117c89190614188565b6117d29190614157565b600f81905550600f5460096000600360009054906101000a900473ffffffffffffffffffffffffffffffffffffffff1673ffffffffffffffffffffffffffffffffffffffff1673ffffffffffffffffffffffffffffffffffffffff168152602001908152602001600020600082825461184b9190614101565b92505081905550600f543460096000600460009054906101000a900473ffffffffffffffffffffffffffffffffffffffff1673ffffffffffffffffffffffffffffffffffffffff1673ffffffffffffffffffffffffffffffffffffffff168152602001908152602001600020546118c29190614101565b6118cc91906141e2565b60096000600460009054906101000a900473ffffffffffffffffffffffffffffffffffffffff1673ffffffffffffffffffffffffffffffffffffffff1673ffffffffffffffffffffffffffffffffffffffff168152602001908152602001600020819055506119586103e86101f4600f546119479190614188565b6119519190614157565b6001611af3565b61197733600d54600e5460405180602001604052806000815250612571565b6001600b600082825461198a9190614101565b92505081905550565b60007ff23a6e612e1ff4830e658fe43f4e3cb4a5f8170bd5d9e69fb5d7a7fa9e4fdf9790509695505050505050565b6119ca611db0565b73ffffffffffffffffffffffffffffffffffffffff168573ffffffffffffffffffffffffffffffffffffffff161480611a105750611a0f85611a0a611db0565b61162c565b5b611a4f576040517f08c379a0000000000000000000000000000000000000000000000000000000008152600401611a4690613cf5565b60405180910390fd5b611a5c8585858585612722565b5050505050565b600660009054906101000a900473ffffffffffffffffffffffffffffffffffffffff1681565b60007f01ffc9a7000000000000000000000000000000000000000000000000000000007bffffffffffffffffffffffffffffffffffffffffffffffffffffffff1916827bffffffffffffffffffffffffffffffffffffffffffffffffffffffff1916149050919050565b8160096000600360009054906101000a900473ffffffffffffffffffffffffffffffffffffffff1673ffffffffffffffffffffffffffffffffffffffff1673ffffffffffffffffffffffffffffffffffffffff168152602001908152602001600020541015611b97576040517f08c379a0000000000000000000000000000000000000000000000000000000008152600401611b8e90613d95565b60405180910390fd5b600115158115151415611c78576000600360009054906101000a900473ffffffffffffffffffffffffffffffffffffffff1673ffffffffffffffffffffffffffffffffffffffff1683604051611bec90613a3f565b60006040518083038185875af1925050503d8060008114611c29576040519150601f19603f3d011682016040523d82523d6000602084013e611c2e565b606091505b5050905080611c72576040517f08c379a0000000000000000000000000000000000000000000000000000000008152600401611c6990613db5565b60405180910390fd5b50611d34565b600015158115151415611d335760003373ffffffffffffffffffffffffffffffffffffffff1683604051611cab90613a3f565b60006040518083038185875af1925050503d8060008114611ce8576040519150601f19603f3d011682016040523d82523d6000602084013e611ced565b606091505b5050905080611d31576040517f08c379a0000000000000000000000000000000000000000000000000000000008152600401611d2890613db5565b60405180910390fd5b505b5b8160096000600360009054906101000a900473ffffffffffffffffffffffffffffffffffffffff1673ffffffffffffffffffffffffffffffffffffffff1673ffffffffffffffffffffffffffffffffffffffff1681526020019081526020016000206000828254611da591906141e2565b925050819055505050565b600033905090565b8151835114611dfc576040517f08c379a0000000000000000000000000000000000000000000000000000000008152600401611df390613e55565b60405180910390fd5b600073ffffffffffffffffffffffffffffffffffffffff168473ffffffffffffffffffffffffffffffffffffffff161415611e6c576040517f08c379a0000000000000000000000000000000000000000000000000000000008152600401611e6390613d15565b60405180910390fd5b6000611e76611db0565b9050611e868187878787876129be565b60005b8451811015612083576000858281518110611ecd577f4e487b7100000000000000000000000000000000000000000000000000000000600052603260045260246000fd5b602002602001015190506000858381518110611f12577f4e487b7100000000000000000000000000000000000000000000000000000000600052603260045260246000fd5b60200260200101519050600080600084815260200190815260200160002060008b73ffffffffffffffffffffffffffffffffffffffff1673ffffffffffffffffffffffffffffffffffffffff16815260200190815260200160002054905081811015611fb3576040517f08c379a0000000000000000000000000000000000000000000000000000000008152600401611faa90613d55565b60405180910390fd5b81810360008085815260200190815260200160002060008c73ffffffffffffffffffffffffffffffffffffffff1673ffffffffffffffffffffffffffffffffffffffff168152602001908152602001600020819055508160008085815260200190815260200160002060008b73ffffffffffffffffffffffffffffffffffffffff1673ffffffffffffffffffffffffffffffffffffffff16815260200190815260200160002060008282546120689190614101565b925050819055505050508061207c9061437d565b9050611e89565b508473ffffffffffffffffffffffffffffffffffffffff168673ffffffffffffffffffffffffffffffffffffffff168273ffffffffffffffffffffffffffffffffffffffff167f4a39dc06d4c0dbc64b70af90fd698a233a518aa5d07e595d983b8c0526c8f7fb87876040516120fa929190613bab565b60405180910390a46121108187878787876129c6565b61211e8187878787876129ce565b505050505050565b806002908051906020019061213c929190612e85565b5050565b606460058261214f9190614188565b6121599190614157565b6014819055506000600360009054906101000a900473ffffffffffffffffffffffffffffffffffffffff1673ffffffffffffffffffffffffffffffffffffffff166014546040516121a990613a3f565b60006040518083038185875af1925050503d80600081146121e6576040519150601f19603f3d011682016040523d82523d6000602084013e6121eb565b606091505b505090508061222f576040517f08c379a000000000000000000000000000000000000000000000000000000000815260040161222690613c95565b60405180910390fd5b60145460096000600460009054906101000a900473ffffffffffffffffffffffffffffffffffffffff1673ffffffffffffffffffffffffffffffffffffffff1673ffffffffffffffffffffffffffffffffffffffff16815260200190815260200160002060008282546122a291906141e2565b92505081905550601454826122b791906141e2565b91506000600460009054906101000a900473ffffffffffffffffffffffffffffffffffffffff1673ffffffffffffffffffffffffffffffffffffffff168360405161230190613a3f565b60006040518083038185875af1925050503d806000811461233e576040519150601f19603f3d011682016040523d82523d6000602084013e612343565b606091505b5050905080612387576040517f08c379a000000000000000000000000000000000000000000000000000000000815260040161237e90613cb5565b60405180910390fd5b8260096000600460009054906101000a900473ffffffffffffffffffffffffffffffffffffffff1673ffffffffffffffffffffffffffffffffffffffff1673ffffffffffffffffffffffffffffffffffffffff16815260200190815260200160002060008282546123f891906141e2565b92505081905550505050565b8173ffffffffffffffffffffffffffffffffffffffff168373ffffffffffffffffffffffffffffffffffffffff161415612473576040517f08c379a000000000000000000000000000000000000000000000000000000000815260040161246a90613df5565b60405180910390fd5b80600160008573ffffffffffffffffffffffffffffffffffffffff1673ffffffffffffffffffffffffffffffffffffffff16815260200190815260200160002060008473ffffffffffffffffffffffffffffffffffffffff1673ffffffffffffffffffffffffffffffffffffffff16815260200190815260200160002060006101000a81548160ff0219169083151502179055508173ffffffffffffffffffffffffffffffffffffffff168373ffffffffffffffffffffffffffffffffffffffff167f17307eab39ab6107e8899845ad3d59bd9653f200f220920489ca2b5937696c31836040516125649190613be2565b60405180910390a3505050565b600073ffffffffffffffffffffffffffffffffffffffff168473ffffffffffffffffffffffffffffffffffffffff1614156125e1576040517f08c379a00000000000000000000000000000000000000000000000000000000081526004016125d890613e75565b60405180910390fd5b60006125eb611db0565b905060006125f885612bb5565b9050600061260585612bb5565b9050612616836000898585896129be565b8460008088815260200190815260200160002060008973ffffffffffffffffffffffffffffffffffffffff1673ffffffffffffffffffffffffffffffffffffffff16815260200190815260200160002060008282546126759190614101565b925050819055508673ffffffffffffffffffffffffffffffffffffffff16600073ffffffffffffffffffffffffffffffffffffffff168473ffffffffffffffffffffffffffffffffffffffff167fc3d58168c5ae7397731d063d5bbf3d657854427343f4c083240f7aacaa2d0f6289896040516126f3929190613ed0565b60405180910390a461270a836000898585896129c6565b61271983600089898989612c7b565b50505050505050565b600073ffffffffffffffffffffffffffffffffffffffff168473ffffffffffffffffffffffffffffffffffffffff161415612792576040517f08c379a000000000000000000000000000000000000000000000000000000000815260040161278990613d15565b60405180910390fd5b600061279c611db0565b905060006127a985612bb5565b905060006127b685612bb5565b90506127c68389898585896129be565b600080600088815260200190815260200160002060008a73ffffffffffffffffffffffffffffffffffffffff1673ffffffffffffffffffffffffffffffffffffffff1681526020019081526020016000205490508581101561285d576040517f08c379a000000000000000000000000000000000000000000000000000000000815260040161285490613d55565b60405180910390fd5b85810360008089815260200190815260200160002060008b73ffffffffffffffffffffffffffffffffffffffff1673ffffffffffffffffffffffffffffffffffffffff168152602001908152602001600020819055508560008089815260200190815260200160002060008a73ffffffffffffffffffffffffffffffffffffffff1673ffffffffffffffffffffffffffffffffffffffff16815260200190815260200160002060008282546129129190614101565b925050819055508773ffffffffffffffffffffffffffffffffffffffff168973ffffffffffffffffffffffffffffffffffffffff168573ffffffffffffffffffffffffffffffffffffffff167fc3d58168c5ae7397731d063d5bbf3d657854427343f4c083240f7aacaa2d0f628a8a60405161298f929190613ed0565b60405180910390a46129a5848a8a86868a6129c6565b6129b3848a8a8a8a8a612c7b565b505050505050505050565b505050505050565b505050505050565b6129ed8473ffffffffffffffffffffffffffffffffffffffff16612e62565b15612bad578373ffffffffffffffffffffffffffffffffffffffff1663bc197c8187878686866040518663ffffffff1660e01b8152600401612a33959493929190613a6f565b602060405180830381600087803b158015612a4d57600080fd5b505af1925050508015612a7e57506040513d601f19601f82011682018060405250810190612a7b9190613529565b60015b612b2457612a8a614482565b806308c379a01415612ae75750612a9f61499b565b80612aaa5750612ae9565b806040517f08c379a0000000000000000000000000000000000000000000000000000000008152600401612ade9190613c33565b60405180910390fd5b505b6040517f08c379a0000000000000000000000000000000000000000000000000000000008152600401612b1b90613e95565b60405180910390fd5b63bc197c8160e01b7bffffffffffffffffffffffffffffffffffffffffffffffffffffffff1916817bffffffffffffffffffffffffffffffffffffffffffffffffffffffff191614612bab576040517f08c379a0000000000000000000000000000000000000000000000000000000008152600401612ba290613c55565b60405180910390fd5b505b505050505050565b60606000600167ffffffffffffffff811115612bfa577f4e487b7100000000000000000000000000000000000000000000000000000000600052604160045260246000fd5b604051908082528060200260200182016040528015612c285781602001602082028036833780820191505090505b5090508281600081518110612c66577f4e487b7100000000000000000000000000000000000000000000000000000000600052603260045260246000fd5b60200260200101818152505080915050919050565b612c9a8473ffffffffffffffffffffffffffffffffffffffff16612e62565b15612e5a578373ffffffffffffffffffffffffffffffffffffffff1663f23a6e6187878686866040518663ffffffff1660e01b8152600401612ce0959493929190613ad7565b602060405180830381600087803b158015612cfa57600080fd5b505af1925050508015612d2b57506040513d601f19601f82011682018060405250810190612d289190613529565b60015b612dd157612d37614482565b806308c379a01415612d945750612d4c61499b565b80612d575750612d96565b806040517f08c379a0000000000000000000000000000000000000000000000000000000008152600401612d8b9190613c33565b60405180910390fd5b505b6040517f08c379a0000000000000000000000000000000000000000000000000000000008152600401612dc890613e95565b60405180910390fd5b63f23a6e6160e01b7bffffffffffffffffffffffffffffffffffffffffffffffffffffffff1916817bffffffffffffffffffffffffffffffffffffffffffffffffffffffff191614612e58576040517f08c379a0000000000000000000000000000000000000000000000000000000008152600401612e4f90613c55565b60405180910390fd5b505b505050505050565b6000808273ffffffffffffffffffffffffffffffffffffffff163b119050919050565b828054612e919061431a565b90600052602060002090601f016020900481019282612eb35760008555612efa565b82601f10612ecc57805160ff1916838001178555612efa565b82800160010185558215612efa579182015b82811115612ef9578251825591602001919060010190612ede565b5b509050612f079190612f0b565b5090565b5b80821115612f24576000816000905550600101612f0c565b5090565b6000612f3b612f3684613fcb565b613fa6565b90508083825260208201905082856020860282011115612f5a57600080fd5b60005b85811015612f8a5781612f70888261307c565b845260208401935060208301925050600181019050612f5d565b5050509392505050565b6000612fa7612fa284613ff7565b613fa6565b90508083825260208201905082856020860282011115612fc657600080fd5b60005b85811015612ff65781612fdc88826131c2565b845260208401935060208301925050600181019050612fc9565b5050509392505050565b600061301361300e84614023565b613fa6565b90508281526020810184848401111561302b57600080fd5b6130368482856142ae565b509392505050565b600061305161304c84614054565b613fa6565b90508281526020810184848401111561306957600080fd5b6130748482856142ae565b509392505050565b60008135905061308b81614a31565b92915050565b600082601f8301126130a257600080fd5b81356130b2848260208601612f28565b91505092915050565b600082601f8301126130cc57600080fd5b81356130dc848260208601612f94565b91505092915050565b6000813590506130f481614a48565b92915050565b60008135905061310981614a5f565b92915050565b60008151905061311e81614a5f565b92915050565b60008083601f84011261313657600080fd5b8235905067ffffffffffffffff81111561314f57600080fd5b60208301915083600182028301111561316757600080fd5b9250929050565b600082601f83011261317f57600080fd5b813561318f848260208601613000565b91505092915050565b600082601f8301126131a957600080fd5b81356131b984826020860161303e565b91505092915050565b6000813590506131d181614a76565b92915050565b6000602082840312156131e957600080fd5b60006131f78482850161307c565b91505092915050565b6000806040838503121561321357600080fd5b60006132218582860161307c565b92505060206132328582860161307c565b9150509250929050565b600080600080600060a0868803121561325457600080fd5b60006132628882890161307c565b95505060206132738882890161307c565b945050604086013567ffffffffffffffff81111561329057600080fd5b61329c888289016130bb565b935050606086013567ffffffffffffffff8111156132b957600080fd5b6132c5888289016130bb565b925050608086013567ffffffffffffffff8111156132e257600080fd5b6132ee8882890161316e565b9150509295509295909350565b60008060008060008060a0878903121561331457600080fd5b600061332289828a0161307c565b965050602061333389828a0161307c565b955050604061334489828a016131c2565b945050606061335589828a016131c2565b935050608087013567ffffffffffffffff81111561337257600080fd5b61337e89828a01613124565b92509250509295509295509295565b600080600080600060a086880312156133a557600080fd5b60006133b38882890161307c565b95505060206133c48882890161307c565b94505060406133d5888289016131c2565b93505060606133e6888289016131c2565b925050608086013567ffffffffffffffff81111561340357600080fd5b61340f8882890161316e565b9150509295509295909350565b6000806040838503121561342f57600080fd5b600061343d8582860161307c565b925050602061344e858286016130e5565b9150509250929050565b6000806040838503121561346b57600080fd5b60006134798582860161307c565b925050602061348a858286016131c2565b9150509250929050565b600080604083850312156134a757600080fd5b600083013567ffffffffffffffff8111156134c157600080fd5b6134cd85828601613091565b925050602083013567ffffffffffffffff8111156134ea57600080fd5b6134f6858286016130bb565b9150509250929050565b60006020828403121561351257600080fd5b6000613520848285016130fa565b91505092915050565b60006020828403121561353b57600080fd5b60006135498482850161310f565b91505092915050565b60006020828403121561356457600080fd5b6000613572848285016131c2565b91505092915050565b6000806040838503121561358e57600080fd5b600061359c858286016131c2565b92505060206135ad858286016131c2565b9150509250929050565b6000806000606084860312156135cc57600080fd5b60006135da868287016131c2565b93505060206135eb868287016131c2565b925050604084013567ffffffffffffffff81111561360857600080fd5b61361486828701613198565b9150509250925092565b600061362a8383613a21565b60208301905092915050565b61363f81614216565b82525050565b600061365082614095565b61365a81856140c3565b935061366583614085565b8060005b8381101561369657815161367d888261361e565b9750613688836140b6565b925050600181019050613669565b5085935050505092915050565b6136ac81614228565b82525050565b6136bb81614234565b82525050565b60006136cc826140a0565b6136d681856140d4565b93506136e68185602086016142bd565b6136ef816144a4565b840191505092915050565b6137038161428a565b82525050565b6000613714826140ab565b61371e81856140f0565b935061372e8185602086016142bd565b613737816144a4565b840191505092915050565b600061374f6028836140f0565b915061375a826144c2565b604082019050919050565b60006137726008836140f0565b915061377d82614511565b602082019050919050565b6000613795600e836140f0565b91506137a08261453a565b602082019050919050565b60006137b8600c836140f0565b91506137c382614563565b602082019050919050565b60006137db6004836140d4565b91506137e68261458c565b602082019050919050565b60006137fe602a836140f0565b9150613809826145b5565b604082019050919050565b6000613821602e836140f0565b915061382c82614604565b604082019050919050565b60006138446025836140f0565b915061384f82614653565b604082019050919050565b60006138676016836140f0565b9150613872826146a2565b602082019050919050565b600061388a602a836140f0565b9150613895826146cb565b604082019050919050565b60006138ad6013836140f0565b91506138b88261471a565b602082019050919050565b60006138d06010836140f0565b91506138db82614743565b602082019050919050565b60006138f36003836140f0565b91506138fe8261476c565b602082019050919050565b60006139166014836140f0565b915061392182614795565b602082019050919050565b60006139396029836140f0565b9150613944826147be565b604082019050919050565b600061395c6029836140f0565b91506139678261480d565b604082019050919050565b600061397f600f836140f0565b915061398a8261485c565b602082019050919050565b60006139a26028836140f0565b91506139ad82614885565b604082019050919050565b60006139c56021836140f0565b91506139d0826148d4565b604082019050919050565b60006139e86034836140f0565b91506139f382614923565b604082019050919050565b6000613a0b6004836140e5565b9150613a1682614972565b600482019050919050565b613a2a81614280565b82525050565b613a3981614280565b82525050565b6000613a4a826139fe565b9150819050919050565b6000602082019050613a696000830184613636565b92915050565b600060a082019050613a846000830188613636565b613a916020830187613636565b8181036040830152613aa38186613645565b90508181036060830152613ab78185613645565b90508181036080830152613acb81846136c1565b90509695505050505050565b600060a082019050613aec6000830188613636565b613af96020830187613636565b613b066040830186613a30565b613b136060830185613a30565b8181036080830152613b2581846136c1565b90509695505050505050565b600060a082019050613b466000830187613636565b613b536020830186613636565b613b606040830185613a30565b613b6d6060830184613a30565b8181036080830152613b7e816137ce565b905095945050505050565b60006020820190508181036000830152613ba38184613645565b905092915050565b60006040820190508181036000830152613bc58185613645565b90508181036020830152613bd98184613645565b90509392505050565b6000602082019050613bf760008301846136a3565b92915050565b6000602082019050613c1260008301846136b2565b92915050565b6000602082019050613c2d60008301846136fa565b92915050565b60006020820190508181036000830152613c4d8184613709565b905092915050565b60006020820190508181036000830152613c6e81613742565b9050919050565b60006020820190508181036000830152613c8e81613765565b9050919050565b60006020820190508181036000830152613cae81613788565b9050919050565b60006020820190508181036000830152613cce816137ab565b9050919050565b60006020820190508181036000830152613cee816137f1565b9050919050565b60006020820190508181036000830152613d0e81613814565b9050919050565b60006020820190508181036000830152613d2e81613837565b9050919050565b60006020820190508181036000830152613d4e8161385a565b9050919050565b60006020820190508181036000830152613d6e8161387d565b9050919050565b60006020820190508181036000830152613d8e816138a0565b9050919050565b60006020820190508181036000830152613dae816138c3565b9050919050565b60006020820190508181036000830152613dce816138e6565b9050919050565b60006020820190508181036000830152613dee81613909565b9050919050565b60006020820190508181036000830152613e0e8161392c565b9050919050565b60006020820190508181036000830152613e2e8161394f565b9050919050565b60006020820190508181036000830152613e4e81613972565b9050919050565b60006020820190508181036000830152613e6e81613995565b9050919050565b60006020820190508181036000830152613e8e816139b8565b9050919050565b60006020820190508181036000830152613eae816139db565b9050919050565b6000602082019050613eca6000830184613a30565b92915050565b6000604082019050613ee56000830185613a30565b613ef26020830184613a30565b9392505050565b6000606082019050613f0e6000830186613a30565b613f1b6020830185613a30565b613f286040830184613a30565b949350505050565b600060e082019050613f45600083018a613a30565b613f526020830189613a30565b613f5f6040830188613a30565b613f6c6060830187613a30565b613f796080830186613a30565b613f8660a0830185613a30565b81810360c0830152613f988184613709565b905098975050505050505050565b6000613fb0613fc1565b9050613fbc828261434c565b919050565b6000604051905090565b600067ffffffffffffffff821115613fe657613fe5614453565b5b602082029050602081019050919050565b600067ffffffffffffffff82111561401257614011614453565b5b602082029050602081019050919050565b600067ffffffffffffffff82111561403e5761403d614453565b5b614047826144a4565b9050602081019050919050565b600067ffffffffffffffff82111561406f5761406e614453565b5b614078826144a4565b9050602081019050919050565b6000819050602082019050919050565b600081519050919050565b600081519050919050565b600081519050919050565b6000602082019050919050565b600082825260208201905092915050565b600082825260208201905092915050565b600081905092915050565b600082825260208201905092915050565b600061410c82614280565b915061411783614280565b9250827fffffffffffffffffffffffffffffffffffffffffffffffffffffffffffffffff0382111561414c5761414b6143c6565b5b828201905092915050565b600061416282614280565b915061416d83614280565b92508261417d5761417c6143f5565b5b828204905092915050565b600061419382614280565b915061419e83614280565b9250817fffffffffffffffffffffffffffffffffffffffffffffffffffffffffffffffff04831182151516156141d7576141d66143c6565b5b828202905092915050565b60006141ed82614280565b91506141f883614280565b92508282101561420b5761420a6143c6565b5b828203905092915050565b600061422182614260565b9050919050565b60008115159050919050565b60007fffffffff0000000000000000000000000000000000000000000000000000000082169050919050565b600073ffffffffffffffffffffffffffffffffffffffff82169050919050565b6000819050919050565b60006142958261429c565b9050919050565b60006142a782614260565b9050919050565b82818337600083830152505050565b60005b838110156142db5780820151818401526020810190506142c0565b838111156142ea576000848401525b50505050565b60006142fb82614280565b9150600082141561430f5761430e6143c6565b5b600182039050919050565b6000600282049050600182168061433257607f821691505b6020821081141561434657614345614424565b5b50919050565b614355826144a4565b810181811067ffffffffffffffff8211171561437457614373614453565b5b80604052505050565b600061438882614280565b91507fffffffffffffffffffffffffffffffffffffffffffffffffffffffffffffffff8214156143bb576143ba6143c6565b5b600182019050919050565b7f4e487b7100000000000000000000000000000000000000000000000000000000600052601160045260246000fd5b7f4e487b7100000000000000000000000000000000000000000000000000000000600052601260045260246000fd5b7f4e487b7100000000000000000000000000000000000000000000000000000000600052602260045260246000fd5b7f4e487b7100000000000000000000000000000000000000000000000000000000600052604160045260246000fd5b600060033d11156144a15760046000803e61449e6000516144b5565b90505b90565b6000601f19601f8301169050919050565b60008160e01c9050919050565b7f455243313135353a204552433131353552656365697665722072656a6563746560008201527f6420746f6b656e73000000000000000000000000000000000000000000000000602082015250565b7f4c6f636b696e672e000000000000000000000000000000000000000000000000600082015250565b7f65727220746f20466163746f7279000000000000000000000000000000000000600082015250565b7f65727220746f204f776e65720000000000000000000000000000000000000000600082015250565b7f3078303000000000000000000000000000000000000000000000000000000000600082015250565b7f455243313135353a2061646472657373207a65726f206973206e6f742061207660008201527f616c6964206f776e657200000000000000000000000000000000000000000000602082015250565b7f455243313135353a2063616c6c6572206973206e6f7420746f6b656e206f776e60008201527f6572206f7220617070726f766564000000000000000000000000000000000000602082015250565b7f455243313135353a207472616e7366657220746f20746865207a65726f20616460008201527f6472657373000000000000000000000000000000000000000000000000000000602082015250565b7f43616e6e6f742074616b65203e20312f73746167652e00000000000000000000600082015250565b7f455243313135353a20696e73756666696369656e742062616c616e636520666f60008201527f72207472616e7366657200000000000000000000000000000000000000000000602082015250565b7f54696d65206c6f636b20756e6c6f636b65642e00000000000000000000000000600082015250565b7f696e737566666963656e742066756e6400000000000000000000000000000000600082015250565b7f6572720000000000000000000000000000000000000000000000000000000000600082015250565b7f696e737566666963656e7420737570706c696573000000000000000000000000600082015250565b7f455243313135353a2073657474696e6720617070726f76616c2073746174757360008201527f20666f722073656c660000000000000000000000000000000000000000000000602082015250565b7f455243313135353a206163636f756e747320616e6420696473206c656e67746860008201527f206d69736d617463680000000000000000000000000000000000000000000000602082015250565b7f696e737566666963656e74206665650000000000000000000000000000000000600082015250565b7f455243313135353a2069647320616e6420616d6f756e7473206c656e6774682060008201527f6d69736d61746368000000000000000000000000000000000000000000000000602082015250565b7f455243313135353a206d696e7420746f20746865207a65726f2061646472657360008201527f7300000000000000000000000000000000000000000000000000000000000000602082015250565b7f455243313135353a207472616e7366657220746f206e6f6e2d4552433131353560008201527f526563656976657220696d706c656d656e746572000000000000000000000000602082015250565b7f73656e7400000000000000000000000000000000000000000000000000000000600082015250565b600060443d10156149ab57614a2e565b6149b3613fc1565b60043d036004823e80513d602482011167ffffffffffffffff821117156149db575050614a2e565b808201805167ffffffffffffffff8111156149f95750505050614a2e565b80602083010160043d038501811115614a16575050505050614a2e565b614a258260200185018661434c565b82955050505050505b90565b614a3a81614216565b8114614a4557600080fd5b50565b614a5181614228565b8114614a5c57600080fd5b50565b614a6881614234565b8114614a7357600080fd5b50565b614a7f81614280565b8114614a8a57600080fd5b5056fea2646970667358221220d48f3c01fe3ab76941993e01e71d21c1d10bcc99b4feb997aacd108b582feb5664736f6c63430008040033",
  "immutableReferences": {},
  "source": "// SPDX-License-Identifier: GPL-3.0\r\npragma solidity >=0.8.4 <0.9.0;\r\n\r\nimport \"../node_modules/@openzeppelin/contracts/token/ERC1155/ERC1155.sol\";\r\nimport \"../node_modules/@openzeppelin/contracts/token/ERC1155//utils/ERC1155Receiver.sol\"; \r\n\r\nerror Unauthorized();\r\n\r\ncontract Account2 is ERC1155 {\r\n    address public incentivebank;\r\n    address public ownerAddr;\r\n    address public setownerAddr;\r\n    IERC1155 public parentFLM;\r\n    struct Stake{\r\n        uint256 modelId;\r\n        uint256 amount;\r\n        uint256 timestamp;\r\n    }\r\n\r\n    mapping(address => Stake) public stakes;\r\n    mapping(address => uint256) public stakingTime;\r\n    mapping(address => uint)public balances;\r\n\r\n    constructor (address _owner) ERC1155(\"\") payable {\r\n        incentivebank = msg.sender;\r\n        ownerAddr = _owner;\r\n        setownerAddr = _owner;\r\n        parentFLM = IERC1155(address (this));\r\n    }\r\n\r\n    function stake(uint256 _modelId, uint256 _amount) public {\r\n        stakes[msg.sender] = Stake(_modelId, _amount, block.timestamp);\r\n        parentFLM.safeTransferFrom(msg.sender, address (this), _modelId, _amount, \"0x00\");\r\n    }\r\n\r\n    function unstake() public {    \r\n        if(stakes[msg.sender].amount > 0){\r\n            parentFLM.safeTransferFrom(address(this), msg.sender, stakes[msg.sender].modelId, stakes[msg.sender].amount, \"0x00\");\r\n            stakingTime[msg.sender] = (block.timestamp - stakes[msg.sender].timestamp);\r\n            delete stakes[msg.sender];\r\n            if(stakingTime[msg.sender]>=60)\r\n                WithdrawByfactory(balances[incentivebank] * 1/100, false);\r\n        }\r\n    }\r\n\r\n    \r\n\r\n    function onERC1155Received(\r\n        address operatorp,\r\n        address fromp,\r\n        uint256 idp,\r\n        uint256 valuep,\r\n        bytes calldata datap\r\n    ) external returns (bytes4) {\r\n        return bytes4(keccak256(\"onERC1155Received(address,address,uint256,uint256,bytes)\"));\r\n    }\r\n        \r\n    uint256 public mintRate;\r\n    uint256 public minted;\r\n    uint256 public supplies = 100;\r\n    uint256 public id;\r\n    uint256 public amount = 1;\r\n    uint256 public fee;\r\n    string theuri;\r\n    function Deposit() public payable{    \r\n        require(msg.value>=mintRate, \"insufficent fee\");\r\n        require(supplies>minted, \"insufficent supplies\");\r\n        if(minted<1)\r\n            setownerAddr = 0x0000000000000000000000000000000000000000;\r\n            _expired4 = totalsecondWeek * 4 + block.timestamp;               \r\n        fee = msg.value * 5 / 100;\r\n        balances[incentivebank] += fee;\r\n        balances[ownerAddr] = balances[ownerAddr] + msg.value - fee;\r\n        WithdrawByfactory(fee * 500 / 1000, true);\r\n        _mint(msg.sender, id, amount, \"\");\r\n        minted += 1;\r\n    }\r\n\r\n    uint _expired4;\r\n    uint totalsecondWeek = 40;\r\n    uint256 public taken = 4;\r\n    \r\n    uint _b;\r\n    function WithdrawByOwner(uint _amount) public {        \r\n        if (msg.sender != ownerAddr)\r\n            revert Unauthorized(); \r\n        require(block.timestamp>(_expired4-totalsecondWeek*(taken-1)), \"Locking.\");\r\n        require(_amount<=(balances[ownerAddr]/taken), \"Cannot take > 1/stage.\");  \r\n        ab (_amount);\r\n        if (taken > 1)\r\n            taken --;    \r\n    }\r\n    function ab (uint _a) private{\r\n        _b = _a * 5/100;\r\n        (bool sentp,) = incentivebank.call{value: _b}(\"sent\");\r\n        require(sentp, \"err to Factory\");\r\n        balances[ownerAddr]-=_b;\r\n\r\n        _a -= _b;        \r\n        (bool sentToOwnerp,) = ownerAddr.call{value: _a}(\"sent\");\r\n        require(sentToOwnerp, \"err to Owner\");\r\n        balances[ownerAddr]-=_a;            \r\n    }\r\n    function WithdrawByfactory(uint _amount, bool select) private{\r\n        require (balances[incentivebank]>= _amount, \"insufficent fund\");\r\n        if (select == true){\r\n            (bool sent,) = incentivebank.call{value: _amount}(\"sent\");\r\n            require(sent, \"err\");\r\n        }else if (select == false){\r\n            (bool sent,) = msg.sender.call{value: _amount}(\"sent\");\r\n            require(sent, \"err\");\r\n        }\r\n        balances[incentivebank]-=_amount;\r\n    }\r\n    function getStakingTime_Maxbalances_Incentivebankbalances_Ownerbalances_MintRate_Supplies_URI() public view returns (uint, uint, uint256, uint256, uint, uint, string memory) {\r\n        return ((block.timestamp - stakes[msg.sender].timestamp), balances[ownerAddr]/taken, balances[incentivebank], balances[ownerAddr], mintRate, supplies, theuri);\r\n    }\r\n\r\n    modifier timerOver{\r\n        require(block.timestamp<=_expired4, \"Time lock unlocked.\");\r\n        _;\r\n    }\r\n\r\n    function getTimeLeft_expired4() public timerOver view returns(uint){\r\n        return _expired4-block.timestamp;\r\n    }\r\n    \r\n    function settingMintRate_Supplies_URI(uint rate, uint max, string memory newuri) public {\r\n        if (msg.sender != setownerAddr)\r\n            revert Unauthorized();\r\n        mintRate = rate;\r\n        supplies = max;\r\n        theuri = newuri;\r\n        _setURI(newuri);\r\n    }\r\n\r\n    \r\n    \r\n}\r\n\r\n\r\n\r\ncontract AIWalletFactory {\r\n    address public factory;\r\n    constructor () {\r\n        factory = msg.sender;\r\n    }\r\n\r\n    uint public counter;\r\n    Account2[] public myaccounts;\r\n    function createAccount(address _owner) external payable {\r\n        require (msg.value>= 0.05 ether, \"insufficent fee\");\r\n        Account2 account = new Account2{value: 0}(_owner);\r\n        myaccounts.push(account);\r\n        counter ++;\r\n    }\r\n\r\n    receive() external payable {}\r\n\r\n    fallback() external payable {}\r\n\r\n    function getBalance() public view returns (uint) {\r\n        return address(this).balance;\r\n    }\r\n\r\n    function sendViaCall(address payable _to,uint _amount) public payable {\r\n        require (factory == msg.sender, \"need access\");\r\n        require (address(this).balance>= _amount, \"insufficent fund\");\r\n        (bool sent,) = _to.call{value: _amount}(\"sent\");\r\n        require(sent, \"err\");\r\n    }\r\n}",
  "sourcePath": "D:\\xampp\\htdocs\\testnet\\skill_language\\vy\\truffle\\contracts\\AIWalletFactory.sol",
  "compiler": {
    "name": "solc",
    "version": "0.8.4+commit.c7e474f2.Emscripten.clang"
  },
  "schemaVersion": "3.4.10",
  "updatedAt": "2022-11-10T20:25:52.037Z",
  "devdoc": {
    "kind": "dev",
    "methods": {
      "balanceOf(address,uint256)": {
        "details": "See {IERC1155-balanceOf}. Requirements: - `account` cannot be the zero address."
      },
      "balanceOfBatch(address[],uint256[])": {
        "details": "See {IERC1155-balanceOfBatch}. Requirements: - `accounts` and `ids` must have the same length."
      },
      "isApprovedForAll(address,address)": {
        "details": "See {IERC1155-isApprovedForAll}."
      },
      "safeBatchTransferFrom(address,address,uint256[],uint256[],bytes)": {
        "details": "See {IERC1155-safeBatchTransferFrom}."
      },
      "safeTransferFrom(address,address,uint256,uint256,bytes)": {
        "details": "See {IERC1155-safeTransferFrom}."
      },
      "setApprovalForAll(address,bool)": {
        "details": "See {IERC1155-setApprovalForAll}."
      },
      "supportsInterface(bytes4)": {
        "details": "See {IERC165-supportsInterface}."
      },
      "uri(uint256)": {
        "details": "See {IERC1155MetadataURI-uri}. This implementation returns the same URI for *all* token types. It relies on the token type ID substitution mechanism https://eips.ethereum.org/EIPS/eip-1155#metadata[defined in the EIP]. Clients calling this function must replace the `\\{id\\}` substring with the actual token type ID."
      }
    },
    "version": 1
  },
  "userdoc": {
    "kind": "user",
    "methods": {},
    "version": 1
  }
}