{
  "contractName": "AIWalletFactory3",
  "abi": [
    {
      "inputs": [],
      "stateMutability": "nonpayable",
      "type": "constructor"
    },
    {
      "stateMutability": "payable",
      "type": "fallback"
    },
    {
      "inputs": [],
      "name": "counter",
      "outputs": [
        {
          "internalType": "uint256",
          "name": "",
          "type": "uint256"
        }
      ],
      "stateMutability": "view",
      "type": "function"
    },
    {
      "inputs": [],
      "name": "factory",
      "outputs": [
        {
          "internalType": "address",
          "name": "",
          "type": "address"
        }
      ],
      "stateMutability": "view",
      "type": "function"
    },
    {
      "inputs": [
        {
          "internalType": "uint256",
          "name": "",
          "type": "uint256"
        }
      ],
      "name": "myaccounts",
      "outputs": [
        {
          "internalType": "contract Account2",
          "name": "",
          "type": "address"
        }
      ],
      "stateMutability": "view",
      "type": "function"
    },
    {
      "stateMutability": "payable",
      "type": "receive"
    },
    {
      "inputs": [
        {
          "internalType": "address",
          "name": "_owner",
          "type": "address"
        }
      ],
      "name": "createAccount",
      "outputs": [],
      "stateMutability": "payable",
      "type": "function"
    },
    {
      "inputs": [],
      "name": "getBalance",
      "outputs": [
        {
          "internalType": "uint256",
          "name": "",
          "type": "uint256"
        }
      ],
      "stateMutability": "view",
      "type": "function"
    },
    {
      "inputs": [
        {
          "internalType": "address payable",
          "name": "_to",
          "type": "address"
        },
        {
          "internalType": "uint256",
          "name": "_amount",
          "type": "uint256"
        }
      ],
      "name": "sendViaCall",
      "outputs": [],
      "stateMutability": "payable",
      "type": "function"
    }
  ],
  "bytecode": "0x608060405234801561001057600080fd5b50336000806101000a81548173ffffffffffffffffffffffffffffffffffffffff021916908373ffffffffffffffffffffffffffffffffffffffff1602179055506157c5806100606000396000f3fe608060405260043610620000615760003560e01c806312065fe0146200006b57806361bc221a146200009b57806375247d8014620000cb5780639859387b146200010f578063c45a0155146200012f578063e4dc4f55146200015f5762000069565b366200006957005b005b3480156200007857600080fd5b50620000836200017f565b604051620000929190620006b9565b60405180910390f35b348015620000a857600080fd5b50620000b362000187565b604051620000c29190620006b9565b60405180910390f35b348015620000d857600080fd5b50620000f76004803603810190620000f1919062000507565b6200018d565b60405162000106919062000636565b60405180910390f35b6200012d60048036038101906200012791906200049a565b620001cd565b005b3480156200013c57600080fd5b5062000147620002da565b60405162000156919062000619565b60405180910390f35b6200017d6004803603810190620001779190620004c6565b620002fe565b005b600047905090565b60015481565b600281815481106200019e57600080fd5b906000526020600020016000915054906101000a900473ffffffffffffffffffffffffffffffffffffffff1681565b66b1a2bc2ec500003410156200021a576040517f08c379a0000000000000000000000000000000000000000000000000000000008152600401620002119062000697565b60405180910390fd5b600080826040516200022c9062000447565b62000238919062000619565b6040518091039082f090508015801562000256573d6000803e3d6000fd5b5090506002819080600181540180825580915050600190039060005260206000200160009091909190916101000a81548173ffffffffffffffffffffffffffffffffffffffff021916908373ffffffffffffffffffffffffffffffffffffffff16021790555060016000815480929190620002d1906200076c565b91905055505050565b60008054906101000a900473ffffffffffffffffffffffffffffffffffffffff1681565b3373ffffffffffffffffffffffffffffffffffffffff1660008054906101000a900473ffffffffffffffffffffffffffffffffffffffff1673ffffffffffffffffffffffffffffffffffffffff16146200038f576040517f08c379a0000000000000000000000000000000000000000000000000000000008152600401620003869062000653565b60405180910390fd5b60008273ffffffffffffffffffffffffffffffffffffffff1682604051620003b79062000602565b60006040518083038185875af1925050503d8060008114620003f6576040519150601f19603f3d011682016040523d82523d6000602084013e620003fb565b606091505b505090508062000442576040517f08c379a0000000000000000000000000000000000000000000000000000000008152600401620004399062000675565b60405180910390fd5b505050565b614eb480620008dc83390190565b60008135905062000466816200088d565b92915050565b6000813590506200047d81620008a7565b92915050565b6000813590506200049481620008c1565b92915050565b600060208284031215620004ad57600080fd5b6000620004bd8482850162000455565b91505092915050565b60008060408385031215620004da57600080fd5b6000620004ea858286016200046c565b9250506020620004fd8582860162000483565b9150509250929050565b6000602082840312156200051a57600080fd5b60006200052a8482850162000483565b91505092915050565b6200053e81620006f2565b82525050565b6200054f8162000744565b82525050565b600062000564600b83620006e1565b91506200057182620007e9565b602082019050919050565b60006200058b600383620006e1565b9150620005988262000812565b602082019050919050565b6000620005b2600f83620006e1565b9150620005bf826200083b565b602082019050919050565b6000620005d9600483620006d6565b9150620005e68262000864565b600482019050919050565b620005fc816200073a565b82525050565b60006200060f82620005ca565b9150819050919050565b600060208201905062000630600083018462000533565b92915050565b60006020820190506200064d600083018462000544565b92915050565b600060208201905081810360008301526200066e8162000555565b9050919050565b6000602082019050818103600083015262000690816200057c565b9050919050565b60006020820190508181036000830152620006b281620005a3565b9050919050565b6000602082019050620006d06000830184620005f1565b92915050565b600081905092915050565b600082825260208201905092915050565b6000620006ff826200071a565b9050919050565b600062000713826200071a565b9050919050565b600073ffffffffffffffffffffffffffffffffffffffff82169050919050565b6000819050919050565b6000620007518262000758565b9050919050565b600062000765826200071a565b9050919050565b600062000779826200073a565b91507fffffffffffffffffffffffffffffffffffffffffffffffffffffffffffffffff821415620007af57620007ae620007ba565b5b600182019050919050565b7f4e487b7100000000000000000000000000000000000000000000000000000000600052601160045260246000fd5b7f6e65656420616363657373000000000000000000000000000000000000000000600082015250565b7f6572720000000000000000000000000000000000000000000000000000000000600082015250565b7f696e737566666963656e74206665650000000000000000000000000000000000600082015250565b7f73656e7400000000000000000000000000000000000000000000000000000000600082015250565b6200089881620006f2565b8114620008a457600080fd5b50565b620008b28162000706565b8114620008be57600080fd5b50565b620008cc816200073a565b8114620008d857600080fd5b5056fe60806040526001600e556028601255600460135560405162004eb438038062004eb4833981810160405281019062000038919062000248565b6040518060200160405280600081525062000059816200016560201b60201c565b5033600360006101000a81548173ffffffffffffffffffffffffffffffffffffffff021916908373ffffffffffffffffffffffffffffffffffffffff16021790555080600460006101000a81548173ffffffffffffffffffffffffffffffffffffffff021916908373ffffffffffffffffffffffffffffffffffffffff16021790555080600560006101000a81548173ffffffffffffffffffffffffffffffffffffffff021916908373ffffffffffffffffffffffffffffffffffffffff16021790555030600660006101000a81548173ffffffffffffffffffffffffffffffffffffffff021916908373ffffffffffffffffffffffffffffffffffffffff1602179055505062000327565b80600290805190602001906200017d92919062000181565b5050565b8280546200018f90620002a8565b90600052602060002090601f016020900481019282620001b35760008555620001ff565b82601f10620001ce57805160ff1916838001178555620001ff565b82800160010185558215620001ff579182015b82811115620001fe578251825591602001919060010190620001e1565b5b5090506200020e919062000212565b5090565b5b808211156200022d57600081600090555060010162000213565b5090565b60008151905062000242816200030d565b92915050565b6000602082840312156200025b57600080fd5b60006200026b8482850162000231565b91505092915050565b6000620002818262000288565b9050919050565b600073ffffffffffffffffffffffffffffffffffffffff82169050919050565b60006002820490506001821680620002c157607f821691505b60208210811415620002d857620002d7620002de565b5b50919050565b7f4e487b7100000000000000000000000000000000000000000000000000000000600052602260045260246000fd5b620003188162000274565b81146200032457600080fd5b50565b614b7d80620003376000396000f3fe6080604052600436106101d75760003560e01c80639356885411610102578063ca0dcf1611610095578063ed21248c11610064578063ed21248c146106dd578063f23a6e61146106e7578063f242432a14610724578063fd6d169b1461074d576101d7565b8063ca0dcf1614610621578063ddca3f431461064c578063e69ad39b14610677578063e985e9c5146106a0576101d7565b8063a47814ce116100d1578063a47814ce14610575578063aa8c217c146105a0578063af640d0f146105cb578063b6761a64146105f6576101d7565b806393568854146104cf5780639c675eaa146104f85780639d78554b14610523578063a22cb4651461054c576101d7565b806333c934fd1161017a578063583d42fd11610149578063583d42fd146104135780636a0df4f9146104505780637b0472f01461047b5780638efa8874146104a4576101d7565b806333c934fd1461034f5780633b6aa78c1461037a5780634e1273f4146103ab5780634f02c420146103e8576101d7565b806316934fc4116101b657806316934fc41461029357806327e235e3146102d25780632def66201461030f5780632eb2c2d614610326576101d7565b8062fdd58e146101dc57806301ffc9a7146102195780630e89341c14610256575b600080fd5b3480156101e857600080fd5b5061020360048036038101906101fe91906134d6565b610778565b6040516102109190613f6f565b60405180910390f35b34801561022557600080fd5b50610240600480360381019061023b919061357e565b610841565b60405161024d9190613c9c565b60405180910390f35b34801561026257600080fd5b5061027d600480360381019061027891906135d0565b610923565b60405161028a9190613ced565b60405180910390f35b34801561029f57600080fd5b506102ba60048036038101906102b59190613255565b6109b7565b6040516102c993929190613fb3565b60405180910390f35b3480156102de57600080fd5b506102f960048036038101906102f49190613255565b6109e1565b6040516103069190613f6f565b60405180910390f35b34801561031b57600080fd5b506103246109f9565b005b34801561033257600080fd5b5061034d600480360381019061034891906132ba565b610cca565b005b34801561035b57600080fd5b50610364610d6b565b6040516103719190613f6f565b60405180910390f35b34801561038657600080fd5b5061038f610dc5565b6040516103a29796959493929190613fea565b60405180910390f35b3480156103b757600080fd5b506103d260048036038101906103cd9190613512565b610fee565b6040516103df9190613c43565b60405180910390f35b3480156103f457600080fd5b506103fd61119f565b60405161040a9190613f6f565b60405180910390f35b34801561041f57600080fd5b5061043a60048036038101906104359190613255565b6111a5565b6040516104479190613f6f565b60405180910390f35b34801561045c57600080fd5b506104656111bd565b6040516104729190613b0e565b60405180910390f35b34801561048757600080fd5b506104a2600480360381019061049d9190613635565b6111e3565b005b3480156104b057600080fd5b506104b96112f5565b6040516104c69190613f6f565b60405180910390f35b3480156104db57600080fd5b506104f660048036038101906104f19190613671565b6112fb565b005b34801561050457600080fd5b5061050d6113b5565b60405161051a9190613b0e565b60405180910390f35b34801561052f57600080fd5b5061054a600480360381019061054591906135d0565b6113db565b005b34801561055857600080fd5b50610573600480360381019061056e919061349a565b611650565b005b34801561058157600080fd5b5061058a611666565b6040516105979190613b0e565b60405180910390f35b3480156105ac57600080fd5b506105b561168c565b6040516105c29190613f6f565b60405180910390f35b3480156105d757600080fd5b506105e0611692565b6040516105ed9190613f6f565b60405180910390f35b34801561060257600080fd5b5061060b611698565b6040516106189190613f6f565b60405180910390f35b34801561062d57600080fd5b5061063661169e565b6040516106439190613f6f565b60405180910390f35b34801561065857600080fd5b506106616116a4565b60405161066e9190613f6f565b60405180910390f35b34801561068357600080fd5b5061069e600480360381019061069991906135f9565b6116aa565b005b3480156106ac57600080fd5b506106c760048036038101906106c2919061327e565b611967565b6040516106d49190613c9c565b60405180910390f35b6106e56119fb565b005b3480156106f357600080fd5b5061070e60048036038101906107099190613379565b611cce565b60405161071b9190613cb7565b60405180910390f35b34801561073057600080fd5b5061074b6004803603810190610746919061340b565b611cfd565b005b34801561075957600080fd5b50610762611d9e565b60405161076f9190613cd2565b60405180910390f35b60008073ffffffffffffffffffffffffffffffffffffffff168373ffffffffffffffffffffffffffffffffffffffff1614156107e9576040517f08c379a00000000000000000000000000000000000000000000000000000000081526004016107e090613d8f565b60405180910390fd5b60008083815260200190815260200160002060008473ffffffffffffffffffffffffffffffffffffffff1673ffffffffffffffffffffffffffffffffffffffff16815260200190815260200160002054905092915050565b60007fd9b67a26000000000000000000000000000000000000000000000000000000007bffffffffffffffffffffffffffffffffffffffffffffffffffffffff1916827bffffffffffffffffffffffffffffffffffffffffffffffffffffffff1916148061090c57507f0e89341c000000000000000000000000000000000000000000000000000000007bffffffffffffffffffffffffffffffffffffffffffffffffffffffff1916827bffffffffffffffffffffffffffffffffffffffffffffffffffffffff1916145b8061091c575061091b82611dc4565b5b9050919050565b606060028054610932906143d4565b80601f016020809104026020016040519081016040528092919081815260200182805461095e906143d4565b80156109ab5780601f10610980576101008083540402835291602001916109ab565b820191906000526020600020905b81548152906001019060200180831161098e57829003601f168201915b50505050509050919050565b60076020528060005260406000206000915090508060000154908060010154908060020154905083565b60096020528060005260406000206000915090505481565b600660009054906101000a900473ffffffffffffffffffffffffffffffffffffffff1673ffffffffffffffffffffffffffffffffffffffff1663f242432a3033600760003373ffffffffffffffffffffffffffffffffffffffff1673ffffffffffffffffffffffffffffffffffffffff16815260200190815260200160002060000154600760003373ffffffffffffffffffffffffffffffffffffffff1673ffffffffffffffffffffffffffffffffffffffff168152602001908152602001600020600101546040518563ffffffff1660e01b8152600401610ade9493929190613beb565b600060405180830381600087803b158015610af857600080fd5b505af1158015610b0c573d6000803e3d6000fd5b50505050600760003373ffffffffffffffffffffffffffffffffffffffff1673ffffffffffffffffffffffffffffffffffffffff1681526020019081526020016000206002015442610b5e919061429c565b600860003373ffffffffffffffffffffffffffffffffffffffff1673ffffffffffffffffffffffffffffffffffffffff16815260200190815260200160002081905550600760003373ffffffffffffffffffffffffffffffffffffffff1673ffffffffffffffffffffffffffffffffffffffff168152602001908152602001600020600080820160009055600182016000905560028201600090555050603c600860003373ffffffffffffffffffffffffffffffffffffffff1673ffffffffffffffffffffffffffffffffffffffff168152602001908152602001600020541115610cc857610cc76064600160096000600360009054906101000a900473ffffffffffffffffffffffffffffffffffffffff1673ffffffffffffffffffffffffffffffffffffffff1673ffffffffffffffffffffffffffffffffffffffff16815260200190815260200160002054610cb69190614242565b610cc09190614211565b60006116aa565b5b565b610cd2611e2e565b73ffffffffffffffffffffffffffffffffffffffff168573ffffffffffffffffffffffffffffffffffffffff161480610d185750610d1785610d12611e2e565b611967565b5b610d57576040517f08c379a0000000000000000000000000000000000000000000000000000000008152600401610d4e90613daf565b60405180910390fd5b610d648585858585611e36565b5050505050565b6000601154421115610db2576040517f08c379a0000000000000000000000000000000000000000000000000000000008152600401610da990613e2f565b60405180910390fd5b42601154610dc0919061429c565b905090565b6000806000806000806060600860003373ffffffffffffffffffffffffffffffffffffffff1673ffffffffffffffffffffffffffffffffffffffff1681526020019081526020016000205460135460096000600460009054906101000a900473ffffffffffffffffffffffffffffffffffffffff1673ffffffffffffffffffffffffffffffffffffffff1673ffffffffffffffffffffffffffffffffffffffff16815260200190815260200160002054610e7f9190614211565b60096000600360009054906101000a900473ffffffffffffffffffffffffffffffffffffffff1673ffffffffffffffffffffffffffffffffffffffff1673ffffffffffffffffffffffffffffffffffffffff1681526020019081526020016000205460096000600460009054906101000a900473ffffffffffffffffffffffffffffffffffffffff1673ffffffffffffffffffffffffffffffffffffffff1673ffffffffffffffffffffffffffffffffffffffff16815260200190815260200160002054600a54600c546010808054610f57906143d4565b80601f0160208091040260200160405190810160405280929190818152602001828054610f83906143d4565b8015610fd05780601f10610fa557610100808354040283529160200191610fd0565b820191906000526020600020905b815481529060010190602001808311610fb357829003601f168201915b50505050509050965096509650965096509650965090919293949596565b60608151835114611034576040517f08c379a000000000000000000000000000000000000000000000000000000000815260040161102b90613ecf565b60405180910390fd5b6000835167ffffffffffffffff811115611077577f4e487b7100000000000000000000000000000000000000000000000000000000600052604160045260246000fd5b6040519080825280602002602001820160405280156110a55781602001602082028036833780820191505090505b50905060005b84518110156111945761113e8582815181106110f0577f4e487b7100000000000000000000000000000000000000000000000000000000600052603260045260246000fd5b6020026020010151858381518110611131577f4e487b7100000000000000000000000000000000000000000000000000000000600052603260045260246000fd5b6020026020010151610778565b828281518110611177577f4e487b7100000000000000000000000000000000000000000000000000000000600052603260045260246000fd5b6020026020010181815250508061118d90614437565b90506110ab565b508091505092915050565b600b5481565b60086020528060005260406000206000915090505481565b600360009054906101000a900473ffffffffffffffffffffffffffffffffffffffff1681565b604051806060016040528083815260200182815260200142815250600760003373ffffffffffffffffffffffffffffffffffffffff1673ffffffffffffffffffffffffffffffffffffffff168152602001908152602001600020600082015181600001556020820151816001015560408201518160020155905050600660009054906101000a900473ffffffffffffffffffffffffffffffffffffffff1673ffffffffffffffffffffffffffffffffffffffff1663f242432a333085856040518563ffffffff1660e01b81526004016112bf9493929190613beb565b600060405180830381600087803b1580156112d957600080fd5b505af11580156112ed573d6000803e3d6000fd5b505050505050565b600c5481565b600560009054906101000a900473ffffffffffffffffffffffffffffffffffffffff1673ffffffffffffffffffffffffffffffffffffffff163373ffffffffffffffffffffffffffffffffffffffff1614611382576040517f82b4290000000000000000000000000000000000000000000000000000000000815260040160405180910390fd5b82600a8190555081600c8190555080601090805190602001906113a6929190612f03565b506113b0816121a4565b505050565b600460009054906101000a900473ffffffffffffffffffffffffffffffffffffffff1681565b600460009054906101000a900473ffffffffffffffffffffffffffffffffffffffff1673ffffffffffffffffffffffffffffffffffffffff163373ffffffffffffffffffffffffffffffffffffffff1614611462576040517f82b4290000000000000000000000000000000000000000000000000000000000815260040160405180910390fd5b60096000600460009054906101000a900473ffffffffffffffffffffffffffffffffffffffff1673ffffffffffffffffffffffffffffffffffffffff1673ffffffffffffffffffffffffffffffffffffffff168152602001908152602001600020548111611505576040517f08c379a00000000000000000000000000000000000000000000000000000000081526004016114fc90613e4f565b60405180910390fd5b6001601354611514919061429c565b6012546115219190614242565b60115461152e919061429c565b421161156f576040517f08c379a000000000000000000000000000000000000000000000000000000000815260040161156690613d2f565b60405180910390fd5b60135460096000600460009054906101000a900473ffffffffffffffffffffffffffffffffffffffff1673ffffffffffffffffffffffffffffffffffffffff1673ffffffffffffffffffffffffffffffffffffffff168152602001908152602001600020546115de9190614211565b811115611620576040517f08c379a000000000000000000000000000000000000000000000000000000000815260040161161790613def565b60405180910390fd5b611629816121be565b6001601354111561164d5760136000815480929190611647906143aa565b91905055505b50565b61166261165b611e2e565b8383612482565b5050565b600560009054906101000a900473ffffffffffffffffffffffffffffffffffffffff1681565b600e5481565b600d5481565b60135481565b600a5481565b600f5481565b8160096000600360009054906101000a900473ffffffffffffffffffffffffffffffffffffffff1673ffffffffffffffffffffffffffffffffffffffff1673ffffffffffffffffffffffffffffffffffffffff16815260200190815260200160002054101561174e576040517f08c379a000000000000000000000000000000000000000000000000000000000815260040161174590613e4f565b60405180910390fd5b60011515811515141561182f576000600360009054906101000a900473ffffffffffffffffffffffffffffffffffffffff1673ffffffffffffffffffffffffffffffffffffffff16836040516117a390613af9565b60006040518083038185875af1925050503d80600081146117e0576040519150601f19603f3d011682016040523d82523d6000602084013e6117e5565b606091505b5050905080611829576040517f08c379a000000000000000000000000000000000000000000000000000000000815260040161182090613e6f565b60405180910390fd5b506118eb565b6000151581151514156118ea5760003373ffffffffffffffffffffffffffffffffffffffff168360405161186290613af9565b60006040518083038185875af1925050503d806000811461189f576040519150601f19603f3d011682016040523d82523d6000602084013e6118a4565b606091505b50509050806118e8576040517f08c379a00000000000000000000000000000000000000000000000000000000081526004016118df90613e6f565b60405180910390fd5b505b5b8160096000600360009054906101000a900473ffffffffffffffffffffffffffffffffffffffff1673ffffffffffffffffffffffffffffffffffffffff1673ffffffffffffffffffffffffffffffffffffffff168152602001908152602001600020600082825461195c919061429c565b925050819055505050565b6000600160008473ffffffffffffffffffffffffffffffffffffffff1673ffffffffffffffffffffffffffffffffffffffff16815260200190815260200160002060008373ffffffffffffffffffffffffffffffffffffffff1673ffffffffffffffffffffffffffffffffffffffff16815260200190815260200160002060009054906101000a900460ff16905092915050565b600a54341015611a40576040517f08c379a0000000000000000000000000000000000000000000000000000000008152600401611a3790613eef565b60405180910390fd5b600b54600c5411611a86576040517f08c379a0000000000000000000000000000000000000000000000000000000008152600401611a7d90613e8f565b60405180910390fd5b6001600b541015611ad4576000600560006101000a81548173ffffffffffffffffffffffffffffffffffffffff021916908373ffffffffffffffffffffffffffffffffffffffff1602179055505b426004601254611ae49190614242565b611aee91906141bb565b6011819055506064600534611b039190614242565b611b0d9190614211565b600f81905550600f5460096000600360009054906101000a900473ffffffffffffffffffffffffffffffffffffffff1673ffffffffffffffffffffffffffffffffffffffff1673ffffffffffffffffffffffffffffffffffffffff1681526020019081526020016000206000828254611b8691906141bb565b92505081905550600f543460096000600460009054906101000a900473ffffffffffffffffffffffffffffffffffffffff1673ffffffffffffffffffffffffffffffffffffffff1673ffffffffffffffffffffffffffffffffffffffff16815260200190815260200160002054611bfd91906141bb565b611c07919061429c565b60096000600460009054906101000a900473ffffffffffffffffffffffffffffffffffffffff1673ffffffffffffffffffffffffffffffffffffffff1673ffffffffffffffffffffffffffffffffffffffff16815260200190815260200160002081905550611c936103e86101f4600f54611c829190614242565b611c8c9190614211565b60016116aa565b611cb233600d54600e54604051806020016040528060008152506125ef565b6001600b6000828254611cc591906141bb565b92505081905550565b60007ff23a6e612e1ff4830e658fe43f4e3cb4a5f8170bd5d9e69fb5d7a7fa9e4fdf9790509695505050505050565b611d05611e2e565b73ffffffffffffffffffffffffffffffffffffffff168573ffffffffffffffffffffffffffffffffffffffff161480611d4b5750611d4a85611d45611e2e565b611967565b5b611d8a576040517f08c379a0000000000000000000000000000000000000000000000000000000008152600401611d8190613daf565b60405180910390fd5b611d9785858585856127a0565b5050505050565b600660009054906101000a900473ffffffffffffffffffffffffffffffffffffffff1681565b60007f01ffc9a7000000000000000000000000000000000000000000000000000000007bffffffffffffffffffffffffffffffffffffffffffffffffffffffff1916827bffffffffffffffffffffffffffffffffffffffffffffffffffffffff1916149050919050565b600033905090565b8151835114611e7a576040517f08c379a0000000000000000000000000000000000000000000000000000000008152600401611e7190613f0f565b60405180910390fd5b600073ffffffffffffffffffffffffffffffffffffffff168473ffffffffffffffffffffffffffffffffffffffff161415611eea576040517f08c379a0000000000000000000000000000000000000000000000000000000008152600401611ee190613dcf565b60405180910390fd5b6000611ef4611e2e565b9050611f04818787878787612a3c565b60005b8451811015612101576000858281518110611f4b577f4e487b7100000000000000000000000000000000000000000000000000000000600052603260045260246000fd5b602002602001015190506000858381518110611f90577f4e487b7100000000000000000000000000000000000000000000000000000000600052603260045260246000fd5b60200260200101519050600080600084815260200190815260200160002060008b73ffffffffffffffffffffffffffffffffffffffff1673ffffffffffffffffffffffffffffffffffffffff16815260200190815260200160002054905081811015612031576040517f08c379a000000000000000000000000000000000000000000000000000000000815260040161202890613e0f565b60405180910390fd5b81810360008085815260200190815260200160002060008c73ffffffffffffffffffffffffffffffffffffffff1673ffffffffffffffffffffffffffffffffffffffff168152602001908152602001600020819055508160008085815260200190815260200160002060008b73ffffffffffffffffffffffffffffffffffffffff1673ffffffffffffffffffffffffffffffffffffffff16815260200190815260200160002060008282546120e691906141bb565b92505081905550505050806120fa90614437565b9050611f07565b508473ffffffffffffffffffffffffffffffffffffffff168673ffffffffffffffffffffffffffffffffffffffff168273ffffffffffffffffffffffffffffffffffffffff167f4a39dc06d4c0dbc64b70af90fd698a233a518aa5d07e595d983b8c0526c8f7fb8787604051612178929190613c65565b60405180910390a461218e818787878787612a44565b61219c818787878787612a4c565b505050505050565b80600290805190602001906121ba929190612f03565b5050565b60646005826121cd9190614242565b6121d79190614211565b6014819055506000600360009054906101000a900473ffffffffffffffffffffffffffffffffffffffff1673ffffffffffffffffffffffffffffffffffffffff1660145460405161222790613af9565b60006040518083038185875af1925050503d8060008114612264576040519150601f19603f3d011682016040523d82523d6000602084013e612269565b606091505b50509050806122ad576040517f08c379a00000000000000000000000000000000000000000000000000000000081526004016122a490613d4f565b60405180910390fd5b60145460096000600460009054906101000a900473ffffffffffffffffffffffffffffffffffffffff1673ffffffffffffffffffffffffffffffffffffffff1673ffffffffffffffffffffffffffffffffffffffff1681526020019081526020016000206000828254612320919061429c565b9250508190555060145482612335919061429c565b91506000600460009054906101000a900473ffffffffffffffffffffffffffffffffffffffff1673ffffffffffffffffffffffffffffffffffffffff168360405161237f90613af9565b60006040518083038185875af1925050503d80600081146123bc576040519150601f19603f3d011682016040523d82523d6000602084013e6123c1565b606091505b5050905080612405576040517f08c379a00000000000000000000000000000000000000000000000000000000081526004016123fc90613d6f565b60405180910390fd5b8260096000600460009054906101000a900473ffffffffffffffffffffffffffffffffffffffff1673ffffffffffffffffffffffffffffffffffffffff1673ffffffffffffffffffffffffffffffffffffffff1681526020019081526020016000206000828254612476919061429c565b92505081905550505050565b8173ffffffffffffffffffffffffffffffffffffffff168373ffffffffffffffffffffffffffffffffffffffff1614156124f1576040517f08c379a00000000000000000000000000000000000000000000000000000000081526004016124e890613eaf565b60405180910390fd5b80600160008573ffffffffffffffffffffffffffffffffffffffff1673ffffffffffffffffffffffffffffffffffffffff16815260200190815260200160002060008473ffffffffffffffffffffffffffffffffffffffff1673ffffffffffffffffffffffffffffffffffffffff16815260200190815260200160002060006101000a81548160ff0219169083151502179055508173ffffffffffffffffffffffffffffffffffffffff168373ffffffffffffffffffffffffffffffffffffffff167f17307eab39ab6107e8899845ad3d59bd9653f200f220920489ca2b5937696c31836040516125e29190613c9c565b60405180910390a3505050565b600073ffffffffffffffffffffffffffffffffffffffff168473ffffffffffffffffffffffffffffffffffffffff16141561265f576040517f08c379a000000000000000000000000000000000000000000000000000000000815260040161265690613f2f565b60405180910390fd5b6000612669611e2e565b9050600061267685612c33565b9050600061268385612c33565b905061269483600089858589612a3c565b8460008088815260200190815260200160002060008973ffffffffffffffffffffffffffffffffffffffff1673ffffffffffffffffffffffffffffffffffffffff16815260200190815260200160002060008282546126f391906141bb565b925050819055508673ffffffffffffffffffffffffffffffffffffffff16600073ffffffffffffffffffffffffffffffffffffffff168473ffffffffffffffffffffffffffffffffffffffff167fc3d58168c5ae7397731d063d5bbf3d657854427343f4c083240f7aacaa2d0f628989604051612771929190613f8a565b60405180910390a461278883600089858589612a44565b61279783600089898989612cf9565b50505050505050565b600073ffffffffffffffffffffffffffffffffffffffff168473ffffffffffffffffffffffffffffffffffffffff161415612810576040517f08c379a000000000000000000000000000000000000000000000000000000000815260040161280790613dcf565b60405180910390fd5b600061281a611e2e565b9050600061282785612c33565b9050600061283485612c33565b9050612844838989858589612a3c565b600080600088815260200190815260200160002060008a73ffffffffffffffffffffffffffffffffffffffff1673ffffffffffffffffffffffffffffffffffffffff168152602001908152602001600020549050858110156128db576040517f08c379a00000000000000000000000000000000000000000000000000000000081526004016128d290613e0f565b60405180910390fd5b85810360008089815260200190815260200160002060008b73ffffffffffffffffffffffffffffffffffffffff1673ffffffffffffffffffffffffffffffffffffffff168152602001908152602001600020819055508560008089815260200190815260200160002060008a73ffffffffffffffffffffffffffffffffffffffff1673ffffffffffffffffffffffffffffffffffffffff168152602001908152602001600020600082825461299091906141bb565b925050819055508773ffffffffffffffffffffffffffffffffffffffff168973ffffffffffffffffffffffffffffffffffffffff168573ffffffffffffffffffffffffffffffffffffffff167fc3d58168c5ae7397731d063d5bbf3d657854427343f4c083240f7aacaa2d0f628a8a604051612a0d929190613f8a565b60405180910390a4612a23848a8a86868a612a44565b612a31848a8a8a8a8a612cf9565b505050505050505050565b505050505050565b505050505050565b612a6b8473ffffffffffffffffffffffffffffffffffffffff16612ee0565b15612c2b578373ffffffffffffffffffffffffffffffffffffffff1663bc197c8187878686866040518663ffffffff1660e01b8152600401612ab1959493929190613b29565b602060405180830381600087803b158015612acb57600080fd5b505af1925050508015612afc57506040513d601f19601f82011682018060405250810190612af991906135a7565b60015b612ba257612b0861453c565b806308c379a01415612b655750612b1d614a55565b80612b285750612b67565b806040517f08c379a0000000000000000000000000000000000000000000000000000000008152600401612b5c9190613ced565b60405180910390fd5b505b6040517f08c379a0000000000000000000000000000000000000000000000000000000008152600401612b9990613f4f565b60405180910390fd5b63bc197c8160e01b7bffffffffffffffffffffffffffffffffffffffffffffffffffffffff1916817bffffffffffffffffffffffffffffffffffffffffffffffffffffffff191614612c29576040517f08c379a0000000000000000000000000000000000000000000000000000000008152600401612c2090613d0f565b60405180910390fd5b505b505050505050565b60606000600167ffffffffffffffff811115612c78577f4e487b7100000000000000000000000000000000000000000000000000000000600052604160045260246000fd5b604051908082528060200260200182016040528015612ca65781602001602082028036833780820191505090505b5090508281600081518110612ce4577f4e487b7100000000000000000000000000000000000000000000000000000000600052603260045260246000fd5b60200260200101818152505080915050919050565b612d188473ffffffffffffffffffffffffffffffffffffffff16612ee0565b15612ed8578373ffffffffffffffffffffffffffffffffffffffff1663f23a6e6187878686866040518663ffffffff1660e01b8152600401612d5e959493929190613b91565b602060405180830381600087803b158015612d7857600080fd5b505af1925050508015612da957506040513d601f19601f82011682018060405250810190612da691906135a7565b60015b612e4f57612db561453c565b806308c379a01415612e125750612dca614a55565b80612dd55750612e14565b806040517f08c379a0000000000000000000000000000000000000000000000000000000008152600401612e099190613ced565b60405180910390fd5b505b6040517f08c379a0000000000000000000000000000000000000000000000000000000008152600401612e4690613f4f565b60405180910390fd5b63f23a6e6160e01b7bffffffffffffffffffffffffffffffffffffffffffffffffffffffff1916817bffffffffffffffffffffffffffffffffffffffffffffffffffffffff191614612ed6576040517f08c379a0000000000000000000000000000000000000000000000000000000008152600401612ecd90613d0f565b60405180910390fd5b505b505050505050565b6000808273ffffffffffffffffffffffffffffffffffffffff163b119050919050565b828054612f0f906143d4565b90600052602060002090601f016020900481019282612f315760008555612f78565b82601f10612f4a57805160ff1916838001178555612f78565b82800160010185558215612f78579182015b82811115612f77578251825591602001919060010190612f5c565b5b509050612f859190612f89565b5090565b5b80821115612fa2576000816000905550600101612f8a565b5090565b6000612fb9612fb484614085565b614060565b90508083825260208201905082856020860282011115612fd857600080fd5b60005b858110156130085781612fee88826130fa565b845260208401935060208301925050600181019050612fdb565b5050509392505050565b6000613025613020846140b1565b614060565b9050808382526020820190508285602086028201111561304457600080fd5b60005b85811015613074578161305a8882613240565b845260208401935060208301925050600181019050613047565b5050509392505050565b600061309161308c846140dd565b614060565b9050828152602081018484840111156130a957600080fd5b6130b4848285614368565b509392505050565b60006130cf6130ca8461410e565b614060565b9050828152602081018484840111156130e757600080fd5b6130f2848285614368565b509392505050565b60008135905061310981614aeb565b92915050565b600082601f83011261312057600080fd5b8135613130848260208601612fa6565b91505092915050565b600082601f83011261314a57600080fd5b813561315a848260208601613012565b91505092915050565b60008135905061317281614b02565b92915050565b60008135905061318781614b19565b92915050565b60008151905061319c81614b19565b92915050565b60008083601f8401126131b457600080fd5b8235905067ffffffffffffffff8111156131cd57600080fd5b6020830191508360018202830111156131e557600080fd5b9250929050565b600082601f8301126131fd57600080fd5b813561320d84826020860161307e565b91505092915050565b600082601f83011261322757600080fd5b81356132378482602086016130bc565b91505092915050565b60008135905061324f81614b30565b92915050565b60006020828403121561326757600080fd5b6000613275848285016130fa565b91505092915050565b6000806040838503121561329157600080fd5b600061329f858286016130fa565b92505060206132b0858286016130fa565b9150509250929050565b600080600080600060a086880312156132d257600080fd5b60006132e0888289016130fa565b95505060206132f1888289016130fa565b945050604086013567ffffffffffffffff81111561330e57600080fd5b61331a88828901613139565b935050606086013567ffffffffffffffff81111561333757600080fd5b61334388828901613139565b925050608086013567ffffffffffffffff81111561336057600080fd5b61336c888289016131ec565b9150509295509295909350565b60008060008060008060a0878903121561339257600080fd5b60006133a089828a016130fa565b96505060206133b189828a016130fa565b95505060406133c289828a01613240565b94505060606133d389828a01613240565b935050608087013567ffffffffffffffff8111156133f057600080fd5b6133fc89828a016131a2565b92509250509295509295509295565b600080600080600060a0868803121561342357600080fd5b6000613431888289016130fa565b9550506020613442888289016130fa565b945050604061345388828901613240565b935050606061346488828901613240565b925050608086013567ffffffffffffffff81111561348157600080fd5b61348d888289016131ec565b9150509295509295909350565b600080604083850312156134ad57600080fd5b60006134bb858286016130fa565b92505060206134cc85828601613163565b9150509250929050565b600080604083850312156134e957600080fd5b60006134f7858286016130fa565b925050602061350885828601613240565b9150509250929050565b6000806040838503121561352557600080fd5b600083013567ffffffffffffffff81111561353f57600080fd5b61354b8582860161310f565b925050602083013567ffffffffffffffff81111561356857600080fd5b61357485828601613139565b9150509250929050565b60006020828403121561359057600080fd5b600061359e84828501613178565b91505092915050565b6000602082840312156135b957600080fd5b60006135c78482850161318d565b91505092915050565b6000602082840312156135e257600080fd5b60006135f084828501613240565b91505092915050565b6000806040838503121561360c57600080fd5b600061361a85828601613240565b925050602061362b85828601613163565b9150509250929050565b6000806040838503121561364857600080fd5b600061365685828601613240565b925050602061366785828601613240565b9150509250929050565b60008060006060848603121561368657600080fd5b600061369486828701613240565b93505060206136a586828701613240565b925050604084013567ffffffffffffffff8111156136c257600080fd5b6136ce86828701613216565b9150509250925092565b60006136e48383613adb565b60208301905092915050565b6136f9816142d0565b82525050565b600061370a8261414f565b613714818561417d565b935061371f8361413f565b8060005b8381101561375057815161373788826136d8565b975061374283614170565b925050600181019050613723565b5085935050505092915050565b613766816142e2565b82525050565b613775816142ee565b82525050565b60006137868261415a565b613790818561418e565b93506137a0818560208601614377565b6137a98161455e565b840191505092915050565b6137bd81614344565b82525050565b60006137ce82614165565b6137d881856141aa565b93506137e8818560208601614377565b6137f18161455e565b840191505092915050565b60006138096028836141aa565b91506138148261457c565b604082019050919050565b600061382c6008836141aa565b9150613837826145cb565b602082019050919050565b600061384f600e836141aa565b915061385a826145f4565b602082019050919050565b6000613872600c836141aa565b915061387d8261461d565b602082019050919050565b600061389560048361418e565b91506138a082614646565b602082019050919050565b60006138b8602a836141aa565b91506138c38261466f565b604082019050919050565b60006138db602e836141aa565b91506138e6826146be565b604082019050919050565b60006138fe6025836141aa565b91506139098261470d565b604082019050919050565b60006139216016836141aa565b915061392c8261475c565b602082019050919050565b6000613944602a836141aa565b915061394f82614785565b604082019050919050565b60006139676013836141aa565b9150613972826147d4565b602082019050919050565b600061398a6010836141aa565b9150613995826147fd565b602082019050919050565b60006139ad6003836141aa565b91506139b882614826565b602082019050919050565b60006139d06014836141aa565b91506139db8261484f565b602082019050919050565b60006139f36029836141aa565b91506139fe82614878565b604082019050919050565b6000613a166029836141aa565b9150613a21826148c7565b604082019050919050565b6000613a39600f836141aa565b9150613a4482614916565b602082019050919050565b6000613a5c6028836141aa565b9150613a678261493f565b604082019050919050565b6000613a7f6021836141aa565b9150613a8a8261498e565b604082019050919050565b6000613aa26034836141aa565b9150613aad826149dd565b604082019050919050565b6000613ac560048361419f565b9150613ad082614a2c565b600482019050919050565b613ae48161433a565b82525050565b613af38161433a565b82525050565b6000613b0482613ab8565b9150819050919050565b6000602082019050613b2360008301846136f0565b92915050565b600060a082019050613b3e60008301886136f0565b613b4b60208301876136f0565b8181036040830152613b5d81866136ff565b90508181036060830152613b7181856136ff565b90508181036080830152613b85818461377b565b90509695505050505050565b600060a082019050613ba660008301886136f0565b613bb360208301876136f0565b613bc06040830186613aea565b613bcd6060830185613aea565b8181036080830152613bdf818461377b565b90509695505050505050565b600060a082019050613c0060008301876136f0565b613c0d60208301866136f0565b613c1a6040830185613aea565b613c276060830184613aea565b8181036080830152613c3881613888565b905095945050505050565b60006020820190508181036000830152613c5d81846136ff565b905092915050565b60006040820190508181036000830152613c7f81856136ff565b90508181036020830152613c9381846136ff565b90509392505050565b6000602082019050613cb1600083018461375d565b92915050565b6000602082019050613ccc600083018461376c565b92915050565b6000602082019050613ce760008301846137b4565b92915050565b60006020820190508181036000830152613d0781846137c3565b905092915050565b60006020820190508181036000830152613d28816137fc565b9050919050565b60006020820190508181036000830152613d488161381f565b9050919050565b60006020820190508181036000830152613d6881613842565b9050919050565b60006020820190508181036000830152613d8881613865565b9050919050565b60006020820190508181036000830152613da8816138ab565b9050919050565b60006020820190508181036000830152613dc8816138ce565b9050919050565b60006020820190508181036000830152613de8816138f1565b9050919050565b60006020820190508181036000830152613e0881613914565b9050919050565b60006020820190508181036000830152613e2881613937565b9050919050565b60006020820190508181036000830152613e488161395a565b9050919050565b60006020820190508181036000830152613e688161397d565b9050919050565b60006020820190508181036000830152613e88816139a0565b9050919050565b60006020820190508181036000830152613ea8816139c3565b9050919050565b60006020820190508181036000830152613ec8816139e6565b9050919050565b60006020820190508181036000830152613ee881613a09565b9050919050565b60006020820190508181036000830152613f0881613a2c565b9050919050565b60006020820190508181036000830152613f2881613a4f565b9050919050565b60006020820190508181036000830152613f4881613a72565b9050919050565b60006020820190508181036000830152613f6881613a95565b9050919050565b6000602082019050613f846000830184613aea565b92915050565b6000604082019050613f9f6000830185613aea565b613fac6020830184613aea565b9392505050565b6000606082019050613fc86000830186613aea565b613fd56020830185613aea565b613fe26040830184613aea565b949350505050565b600060e082019050613fff600083018a613aea565b61400c6020830189613aea565b6140196040830188613aea565b6140266060830187613aea565b6140336080830186613aea565b61404060a0830185613aea565b81810360c083015261405281846137c3565b905098975050505050505050565b600061406a61407b565b90506140768282614406565b919050565b6000604051905090565b600067ffffffffffffffff8211156140a05761409f61450d565b5b602082029050602081019050919050565b600067ffffffffffffffff8211156140cc576140cb61450d565b5b602082029050602081019050919050565b600067ffffffffffffffff8211156140f8576140f761450d565b5b6141018261455e565b9050602081019050919050565b600067ffffffffffffffff8211156141295761412861450d565b5b6141328261455e565b9050602081019050919050565b6000819050602082019050919050565b600081519050919050565b600081519050919050565b600081519050919050565b6000602082019050919050565b600082825260208201905092915050565b600082825260208201905092915050565b600081905092915050565b600082825260208201905092915050565b60006141c68261433a565b91506141d18361433a565b9250827fffffffffffffffffffffffffffffffffffffffffffffffffffffffffffffffff0382111561420657614205614480565b5b828201905092915050565b600061421c8261433a565b91506142278361433a565b925082614237576142366144af565b5b828204905092915050565b600061424d8261433a565b91506142588361433a565b9250817fffffffffffffffffffffffffffffffffffffffffffffffffffffffffffffffff048311821515161561429157614290614480565b5b828202905092915050565b60006142a78261433a565b91506142b28361433a565b9250828210156142c5576142c4614480565b5b828203905092915050565b60006142db8261431a565b9050919050565b60008115159050919050565b60007fffffffff0000000000000000000000000000000000000000000000000000000082169050919050565b600073ffffffffffffffffffffffffffffffffffffffff82169050919050565b6000819050919050565b600061434f82614356565b9050919050565b60006143618261431a565b9050919050565b82818337600083830152505050565b60005b8381101561439557808201518184015260208101905061437a565b838111156143a4576000848401525b50505050565b60006143b58261433a565b915060008214156143c9576143c8614480565b5b600182039050919050565b600060028204905060018216806143ec57607f821691505b60208210811415614400576143ff6144de565b5b50919050565b61440f8261455e565b810181811067ffffffffffffffff8211171561442e5761442d61450d565b5b80604052505050565b60006144428261433a565b91507fffffffffffffffffffffffffffffffffffffffffffffffffffffffffffffffff82141561447557614474614480565b5b600182019050919050565b7f4e487b7100000000000000000000000000000000000000000000000000000000600052601160045260246000fd5b7f4e487b7100000000000000000000000000000000000000000000000000000000600052601260045260246000fd5b7f4e487b7100000000000000000000000000000000000000000000000000000000600052602260045260246000fd5b7f4e487b7100000000000000000000000000000000000000000000000000000000600052604160045260246000fd5b600060033d111561455b5760046000803e61455860005161456f565b90505b90565b6000601f19601f8301169050919050565b60008160e01c9050919050565b7f455243313135353a204552433131353552656365697665722072656a6563746560008201527f6420746f6b656e73000000000000000000000000000000000000000000000000602082015250565b7f4c6f636b696e672e000000000000000000000000000000000000000000000000600082015250565b7f65727220746f20466163746f7279000000000000000000000000000000000000600082015250565b7f65727220746f204f776e65720000000000000000000000000000000000000000600082015250565b7f3078303000000000000000000000000000000000000000000000000000000000600082015250565b7f455243313135353a2061646472657373207a65726f206973206e6f742061207660008201527f616c6964206f776e657200000000000000000000000000000000000000000000602082015250565b7f455243313135353a2063616c6c6572206973206e6f7420746f6b656e206f776e60008201527f6572206f7220617070726f766564000000000000000000000000000000000000602082015250565b7f455243313135353a207472616e7366657220746f20746865207a65726f20616460008201527f6472657373000000000000000000000000000000000000000000000000000000602082015250565b7f43616e6e6f742074616b65203e20312f73746167652e00000000000000000000600082015250565b7f455243313135353a20696e73756666696369656e742062616c616e636520666f60008201527f72207472616e7366657200000000000000000000000000000000000000000000602082015250565b7f54696d65206c6f636b20756e6c6f636b65642e00000000000000000000000000600082015250565b7f696e737566666963656e742066756e6400000000000000000000000000000000600082015250565b7f6572720000000000000000000000000000000000000000000000000000000000600082015250565b7f696e737566666963656e7420737570706c696573000000000000000000000000600082015250565b7f455243313135353a2073657474696e6720617070726f76616c2073746174757360008201527f20666f722073656c660000000000000000000000000000000000000000000000602082015250565b7f455243313135353a206163636f756e747320616e6420696473206c656e67746860008201527f206d69736d617463680000000000000000000000000000000000000000000000602082015250565b7f696e737566666963656e74206665650000000000000000000000000000000000600082015250565b7f455243313135353a2069647320616e6420616d6f756e7473206c656e6774682060008201527f6d69736d61746368000000000000000000000000000000000000000000000000602082015250565b7f455243313135353a206d696e7420746f20746865207a65726f2061646472657360008201527f7300000000000000000000000000000000000000000000000000000000000000602082015250565b7f455243313135353a207472616e7366657220746f206e6f6e2d4552433131353560008201527f526563656976657220696d706c656d656e746572000000000000000000000000602082015250565b7f73656e7400000000000000000000000000000000000000000000000000000000600082015250565b600060443d1015614a6557614ae8565b614a6d61407b565b60043d036004823e80513d602482011167ffffffffffffffff82111715614a95575050614ae8565b808201805167ffffffffffffffff811115614ab35750505050614ae8565b80602083010160043d038501811115614ad0575050505050614ae8565b614adf82602001850186614406565b82955050505050505b90565b614af4816142d0565b8114614aff57600080fd5b50565b614b0b816142e2565b8114614b1657600080fd5b50565b614b22816142ee565b8114614b2d57600080fd5b50565b614b398161433a565b8114614b4457600080fd5b5056fea26469706673582212202b7cc592ef71430df0a73360396ca5f34a04f2c571ead839344283ca0d47f12664736f6c63430008040033a26469706673582212208a8af2deca91d032dd4c85d5a635732b9cc564bef0546dd51fb4e82c800bf7eb64736f6c63430008040033",
  "immutableReferences": {},
  "source": "// SPDX-License-Identifier: GPL-3.0\npragma solidity >=0.8.4 <0.9.0;\n\nimport \"../node_modules/@openzeppelin/contracts/token/ERC1155/ERC1155.sol\";\nimport \"../node_modules/@openzeppelin/contracts/token/ERC1155//utils/ERC1155Receiver.sol\"; \n\nerror Unauthorized();\n\ncontract Account2 is ERC1155 {\n    address public incentivebank;\n    address public ownerAddr;\n    address public setownerAddr;\n    IERC1155 public parentFLM;\n    struct Stake{\n        uint256 modelId;\n        uint256 amount;\n        uint256 timestamp;\n    }\n\n    mapping(address => Stake) public stakes;\n    mapping(address => uint256) public stakingTime;\n    mapping(address => uint)public balances;\n\n    constructor (address _owner) ERC1155(\"\") payable {\n        incentivebank = msg.sender;\n        ownerAddr = _owner;\n        setownerAddr = _owner;\n        parentFLM = IERC1155(address (this));\n    }\n\n    function stake(uint256 _modelId, uint256 _amount) public {\n        stakes[msg.sender] = Stake(_modelId, _amount, block.timestamp);\n        parentFLM.safeTransferFrom(msg.sender, address (this), _modelId, _amount, \"0x00\");\n    }\n\n    function unstake() public {        \n        parentFLM.safeTransferFrom(address(this), msg.sender, stakes[msg.sender].modelId, stakes[msg.sender].amount, \"0x00\");\n        stakingTime[msg.sender] = (block.timestamp - stakes[msg.sender].timestamp);\n        delete stakes[msg.sender];\n        if(stakingTime[msg.sender]>60)\n            WithdrawByfactory(balances[incentivebank] * 1/100, false);\n    }\n\n    \n\n    function onERC1155Received(\n        address operatorp,\n        address fromp,\n        uint256 idp,\n        uint256 valuep,\n        bytes calldata datap\n    ) external returns (bytes4) {\n        return bytes4(keccak256(\"onERC1155Received(address,address,uint256,uint256,bytes)\"));\n    }\n        \n    uint256 public mintRate;\n    uint256 public minted;\n    uint256 public supplies;\n    uint256 public id;\n    uint256 public amount = 1;\n    uint256 public fee;\n    string theuri;\n    function Deposit() public payable{    \n        require(msg.value>=mintRate, \"insufficent fee\");\n        require(supplies>minted, \"insufficent supplies\");\n        if(minted<1)\n            setownerAddr = 0x0000000000000000000000000000000000000000;\n            _expired4 = totalsecondWeek * 4 + block.timestamp;            \n            //whenexpired();   \n        fee = msg.value * 5 / 100;\n        balances[incentivebank] += fee;\n        balances[ownerAddr] = balances[ownerAddr] + msg.value - fee;\n        WithdrawByfactory(fee * 500 / 1000, true);\n        _mint(msg.sender, id, amount, \"\");\n        minted += 1;\n    }\n\n    uint _expired4;\n    uint totalsecondWeek = 40;\n    uint256 public taken = 4;\n    //function whenexpired() internal{\n    //    _expired4 = totalsecondWeek * 4 + block.timestamp;\n    //}\n    \n    uint _b;\n    function WithdrawByOwner(uint _amount) public {        \n        if (msg.sender != ownerAddr)\n            revert Unauthorized();\n        require(_amount>balances[ownerAddr], \"insufficent fund\");  \n        require(block.timestamp>(_expired4-totalsecondWeek*(taken-1)), \"Locking.\");\n        require(_amount<=(balances[ownerAddr]/taken), \"Cannot take > 1/stage.\");  \n        ab (_amount);\n        if (taken > 1)\n            taken --;    \n    }\n    function ab (uint _a) private{\n        _b = _a * 5/100;\n        (bool sentp,) = incentivebank.call{value: _b}(\"sent\");\n        require(sentp, \"err to Factory\");\n        balances[ownerAddr]-=_b;\n\n        _a -= _b;        \n        (bool sentToOwnerp,) = ownerAddr.call{value: _a}(\"sent\");\n        require(sentToOwnerp, \"err to Owner\");\n        balances[ownerAddr]-=_a;            \n    }\n    function WithdrawByfactory(uint _amount, bool select) public{\n        require (balances[incentivebank]>= _amount, \"insufficent fund\");\n        if (select == true){\n            (bool sent,) = incentivebank.call{value: _amount}(\"sent\");\n            require(sent, \"err\");\n        }else if (select == false){\n            (bool sent,) = msg.sender.call{value: _amount}(\"sent\");\n            require(sent, \"err\");\n        }\n        balances[incentivebank]-=_amount;\n    }\n    function getStakingTime_Maxbalances_Incentivebankbalances_Ownerbalances_MintRate_Supplies_URI() public view returns (uint, uint, uint256, uint256, uint, uint, string memory) {\n        return (stakingTime[msg.sender], balances[ownerAddr]/taken, balances[incentivebank], balances[ownerAddr], mintRate, supplies, theuri);\n    }\n\n    modifier timerOver{\n        require(block.timestamp<=_expired4, \"Time lock unlocked.\");\n        _;\n    }\n\n    function getTimeLeft_expired4() public timerOver view returns(uint){\n        return _expired4-block.timestamp;\n    }\n    \n    function settingMintRate_Supplies_URI(uint rate, uint max, string memory newuri) public {\n        if (msg.sender != setownerAddr)\n            revert Unauthorized();\n        mintRate = rate;\n        supplies = max;\n        theuri = newuri;\n        _setURI(newuri);\n    }\n\n    \n    \n}\n\n\n\ncontract AIWalletFactory3 {\n    address public factory;\n    constructor () {\n        factory = msg.sender;\n    }\n\n    uint public counter;\n    Account2[] public myaccounts;\n    function createAccount(address _owner) external payable {\n        require (msg.value>= 0.05 ether, \"insufficent fee\");\n        Account2 account = new Account2{value: 0}(_owner);\n        myaccounts.push(account);\n        counter ++;\n    }\n\n    receive() external payable {}\n\n    fallback() external payable {}\n\n    function getBalance() public view returns (uint) {\n        return address(this).balance;\n    }\n\n    function sendViaCall(address payable _to,uint _amount) public payable {\n        require (factory == msg.sender, \"need access\");\n        (bool sent,) = _to.call{value: _amount}(\"sent\");\n        require(sent, \"err\");\n    }\n}",
  "sourcePath": "D:\\xampp\\htdocs\\testnet\\skill_language\\v2\\testing-upload-2\\truffle\\contracts\\AIWalletFactory3.sol",
  "compiler": {
    "name": "solc",
    "version": "0.8.4+commit.c7e474f2.Emscripten.clang"
  },
  "schemaVersion": "3.4.10",
  "updatedAt": "2022-11-09T03:44:54.777Z",
  "devdoc": {
    "kind": "dev",
    "methods": {},
    "version": 1
  },
  "userdoc": {
    "kind": "user",
    "methods": {},
    "version": 1
  }
}